{
  "contractName": "Cryptokitties",
  "abi": [
    {
      "inputs": [
        {
          "internalType": "string",
          "name": "_tokenURIBase",
          "type": "string"
        }
      ],
      "stateMutability": "nonpayable",
      "type": "constructor"
    },
    {
      "anonymous": false,
      "inputs": [
        {
          "indexed": true,
          "internalType": "address",
          "name": "_owner",
          "type": "address"
        },
        {
          "indexed": true,
          "internalType": "address",
          "name": "_approved",
          "type": "address"
        },
        {
          "indexed": true,
          "internalType": "uint256",
          "name": "_tokenId",
          "type": "uint256"
        }
      ],
      "name": "Approval",
      "type": "event"
    },
    {
      "anonymous": false,
      "inputs": [
        {
          "indexed": true,
          "internalType": "address",
          "name": "_owner",
          "type": "address"
        },
        {
          "indexed": true,
          "internalType": "address",
          "name": "_operator",
          "type": "address"
        },
        {
          "indexed": false,
          "internalType": "bool",
          "name": "_approved",
          "type": "bool"
        }
      ],
      "name": "ApprovalForAll",
      "type": "event"
    },
    {
      "anonymous": false,
      "inputs": [
        {
          "indexed": true,
          "internalType": "address",
          "name": "_from",
          "type": "address"
        },
        {
          "indexed": true,
          "internalType": "address",
          "name": "_to",
          "type": "address"
        },
        {
          "indexed": true,
          "internalType": "uint256",
          "name": "_tokenId",
          "type": "uint256"
        }
      ],
      "name": "Transfer",
      "type": "event"
    },
    {
      "inputs": [],
      "name": "admin",
      "outputs": [
        {
          "internalType": "address",
          "name": "",
          "type": "address"
        }
      ],
      "stateMutability": "view",
      "type": "function",
      "constant": true
    },
    {
      "inputs": [
        {
          "internalType": "address",
          "name": "_approved",
          "type": "address"
        },
        {
          "internalType": "uint256",
          "name": "_tokenId",
          "type": "uint256"
        }
      ],
      "name": "approve",
      "outputs": [],
      "stateMutability": "payable",
      "type": "function",
      "payable": true
    },
    {
      "inputs": [
        {
          "internalType": "address",
          "name": "_owner",
          "type": "address"
        }
      ],
      "name": "balanceOf",
      "outputs": [
        {
          "internalType": "uint256",
          "name": "",
          "type": "uint256"
        }
      ],
      "stateMutability": "view",
      "type": "function",
      "constant": true
    },
    {
      "inputs": [
        {
          "internalType": "uint256",
          "name": "_tokenId",
          "type": "uint256"
        }
      ],
      "name": "getApproved",
      "outputs": [
        {
          "internalType": "address",
          "name": "",
          "type": "address"
        }
      ],
      "stateMutability": "view",
      "type": "function",
      "constant": true
    },
    {
      "inputs": [
        {
          "internalType": "uint256",
          "name": "",
          "type": "uint256"
        }
      ],
      "name": "idToApproved",
      "outputs": [
        {
          "internalType": "address",
          "name": "",
          "type": "address"
        }
      ],
      "stateMutability": "view",
      "type": "function",
      "constant": true
    },
    {
      "inputs": [
        {
          "internalType": "uint256",
          "name": "",
          "type": "uint256"
        }
      ],
      "name": "idToOwner",
      "outputs": [
        {
          "internalType": "address",
          "name": "",
          "type": "address"
        }
      ],
      "stateMutability": "view",
      "type": "function",
      "constant": true
    },
    {
      "inputs": [
        {
          "internalType": "address",
          "name": "_owner",
          "type": "address"
        },
        {
          "internalType": "address",
          "name": "_operator",
          "type": "address"
        }
      ],
      "name": "isApprovedForAll",
      "outputs": [
        {
          "internalType": "bool",
          "name": "",
          "type": "bool"
        }
      ],
      "stateMutability": "view",
      "type": "function",
      "constant": true
    },
    {
      "inputs": [],
      "name": "nextId",
      "outputs": [
        {
          "internalType": "uint256",
          "name": "",
          "type": "uint256"
        }
      ],
      "stateMutability": "view",
      "type": "function",
      "constant": true
    },
    {
      "inputs": [],
      "name": "nextTokenId",
      "outputs": [
        {
          "internalType": "uint256",
          "name": "",
          "type": "uint256"
        }
      ],
      "stateMutability": "view",
      "type": "function",
      "constant": true
    },
    {
      "inputs": [
        {
          "internalType": "uint256",
          "name": "_tokenId",
          "type": "uint256"
        }
      ],
      "name": "ownerOf",
      "outputs": [
        {
          "internalType": "address",
          "name": "",
          "type": "address"
        }
      ],
      "stateMutability": "view",
      "type": "function",
      "constant": true
    },
    {
      "inputs": [
        {
          "internalType": "address",
          "name": "",
          "type": "address"
        }
      ],
      "name": "ownerToTokenCount",
      "outputs": [
        {
          "internalType": "uint256",
          "name": "",
          "type": "uint256"
        }
      ],
      "stateMutability": "view",
      "type": "function",
      "constant": true
    },
    {
      "inputs": [
        {
          "internalType": "address",
          "name": "_from",
          "type": "address"
        },
        {
          "internalType": "address",
          "name": "_to",
          "type": "address"
        },
        {
          "internalType": "uint256",
          "name": "_tokenId",
          "type": "uint256"
        }
      ],
      "name": "safeTransferFrom",
      "outputs": [],
      "stateMutability": "payable",
      "type": "function",
      "payable": true
    },
    {
      "inputs": [
        {
          "internalType": "address",
          "name": "_from",
          "type": "address"
        },
        {
          "internalType": "address",
          "name": "_to",
          "type": "address"
        },
        {
          "internalType": "uint256",
          "name": "_tokenId",
          "type": "uint256"
        },
        {
          "internalType": "bytes",
          "name": "data",
          "type": "bytes"
        }
      ],
      "name": "safeTransferFrom",
      "outputs": [],
      "stateMutability": "payable",
      "type": "function",
      "payable": true
    },
    {
      "inputs": [
        {
          "internalType": "address",
          "name": "_operator",
          "type": "address"
        },
        {
          "internalType": "bool",
          "name": "_approved",
          "type": "bool"
        }
      ],
      "name": "setApprovalForAll",
      "outputs": [],
      "stateMutability": "nonpayable",
      "type": "function"
    },
    {
      "inputs": [
        {
          "internalType": "uint256",
          "name": "_tokenId",
          "type": "uint256"
        }
      ],
      "name": "tokenURI",
      "outputs": [
        {
          "internalType": "string",
          "name": "",
          "type": "string"
        }
      ],
      "stateMutability": "view",
      "type": "function",
      "constant": true
    },
    {
      "inputs": [],
      "name": "tokenURIBase",
      "outputs": [
        {
          "internalType": "string",
          "name": "",
          "type": "string"
        }
      ],
      "stateMutability": "view",
      "type": "function",
      "constant": true
    },
    {
      "inputs": [
        {
          "internalType": "address",
          "name": "_from",
          "type": "address"
        },
        {
          "internalType": "address",
          "name": "_to",
          "type": "address"
        },
        {
          "internalType": "uint256",
          "name": "_tokenId",
          "type": "uint256"
        }
      ],
      "name": "transferFrom",
      "outputs": [],
      "stateMutability": "payable",
      "type": "function",
      "payable": true
    },
    {
      "inputs": [
        {
          "internalType": "uint256",
          "name": "kitty1Id",
          "type": "uint256"
        },
        {
          "internalType": "uint256",
          "name": "kitty2Id",
          "type": "uint256"
        }
      ],
      "name": "breed",
      "outputs": [],
      "stateMutability": "nonpayable",
      "type": "function"
    },
    {
      "inputs": [],
      "name": "mint",
      "outputs": [],
      "stateMutability": "nonpayable",
      "type": "function"
    }
  ],
  "bytecode": "0x60806040523480156200001157600080fd5b5060405162002390380380620023908339818101604052810190620000379190620001bc565b808060059080519060200190620000509291906200009a565b505033600860006101000a81548173ffffffffffffffffffffffffffffffffffffffff021916908373ffffffffffffffffffffffffffffffffffffffff1602179055505062000371565b828054620000a89062000296565b90600052602060002090601f016020900481019282620000cc576000855562000118565b82601f10620000e757805160ff191683800117855562000118565b8280016001018555821562000118579182015b8281111562000117578251825591602001919060010190620000fa565b5b5090506200012791906200012b565b5090565b5b80821115620001465760008160009055506001016200012c565b5090565b6000620001616200015b846200022a565b62000201565b9050828152602081018484840111156200017a57600080fd5b6200018784828562000260565b509392505050565b600082601f830112620001a157600080fd5b8151620001b38482602086016200014a565b91505092915050565b600060208284031215620001cf57600080fd5b600082015167ffffffffffffffff811115620001ea57600080fd5b620001f8848285016200018f565b91505092915050565b60006200020d62000220565b90506200021b8282620002cc565b919050565b6000604051905090565b600067ffffffffffffffff82111562000248576200024762000331565b5b620002538262000360565b9050602081019050919050565b60005b838110156200028057808201518184015260208101905062000263565b8381111562000290576000848401525b50505050565b60006002820490506001821680620002af57607f821691505b60208210811415620002c657620002c562000302565b5b50919050565b620002d78262000360565b810181811067ffffffffffffffff82111715620002f957620002f862000331565b5b80604052505050565b7f4e487b7100000000000000000000000000000000000000000000000000000000600052602260045260246000fd5b7f4e487b7100000000000000000000000000000000000000000000000000000000600052604160045260246000fd5b6000601f19601f8301169050919050565b61200f80620003816000396000f3fe6080604052600436106101145760003560e01c806370a08231116100a0578063bfc206ed11610064578063bfc206ed1461037b578063c87b56dd146103b8578063d9ecad7b146103f5578063e985e9c51461041e578063f851a4401461045b57610114565b806370a082311461029157806375794a3c146102ce578063a22cb465146102f9578063b088d74b14610322578063b88d4fde1461035f57610114565b8063261220a3116100e7578063261220a3146101a557806342842e0e146101d057806346692f51146101ec57806361b8ce8c146102295780636352211e1461025457610114565b8063081812fc14610119578063095ea7b3146101565780631249c58b1461017257806323b872dd14610189575b600080fd5b34801561012557600080fd5b50610140600480360381019061013b9190611682565b610486565b60405161014d9190611993565b60405180910390f35b610170600480360381019061016b919061161d565b6104c3565b005b34801561017e57600080fd5b5061018761061b565b005b6101a3600480360381019061019e9190611512565b610747565b005b3480156101b157600080fd5b506101ba610757565b6040516101c79190611a15565b60405180910390f35b6101ea60048036038101906101e59190611512565b6107e5565b005b3480156101f857600080fd5b50610213600480360381019061020e91906114ad565b610805565b6040516102209190611b17565b60405180910390f35b34801561023557600080fd5b5061023e61081d565b60405161024b9190611b17565b60405180910390f35b34801561026057600080fd5b5061027b60048036038101906102769190611682565b610823565b6040516102889190611993565b60405180910390f35b34801561029d57600080fd5b506102b860048036038101906102b391906114ad565b610860565b6040516102c59190611b17565b60405180910390f35b3480156102da57600080fd5b506102e36108a8565b6040516102f09190611b17565b60405180910390f35b34801561030557600080fd5b50610320600480360381019061031b91906115e1565b6108ae565b005b34801561032e57600080fd5b5061034960048036038101906103449190611682565b6109ab565b6040516103569190611993565b60405180910390f35b61037960048036038101906103749190611561565b6109de565b005b34801561038757600080fd5b506103a2600480360381019061039d9190611682565b610a35565b6040516103af9190611993565b60405180910390f35b3480156103c457600080fd5b506103df60048036038101906103da9190611682565b610a68565b6040516103ec9190611a15565b60405180910390f35b34801561040157600080fd5b5061041c600480360381019061041791906116ab565b610a94565b005b34801561042a57600080fd5b50610445600480360381019061044091906114d6565b610cc5565b60405161045291906119fa565b60405180910390f35b34801561046757600080fd5b50610470610d59565b60405161047d9190611993565b60405180910390f35b60006002600083815260200190815260200160002060009054906101000a900473ffffffffffffffffffffffffffffffffffffffff169050919050565b60006001600083815260200190815260200160002060009054906101000a900473ffffffffffffffffffffffffffffffffffffffff1690508073ffffffffffffffffffffffffffffffffffffffff163373ffffffffffffffffffffffffffffffffffffffff1614610569576040517f08c379a000000000000000000000000000000000000000000000000000000000815260040161056090611ad7565b60405180910390fd5b826002600084815260200190815260200160002060006101000a81548173ffffffffffffffffffffffffffffffffffffffff021916908373ffffffffffffffffffffffffffffffffffffffff160217905550818373ffffffffffffffffffffffffffffffffffffffff168273ffffffffffffffffffffffffffffffffffffffff167f8c5be1e5ebec7d5bd14f71427d1e84f3dd0314c0f7b2291e5b200ac8c7c3b92560405160405180910390a4505050565b600860009054906101000a900473ffffffffffffffffffffffffffffffffffffffff1673ffffffffffffffffffffffffffffffffffffffff163373ffffffffffffffffffffffffffffffffffffffff16146106ab576040517f08c379a00000000000000000000000000000000000000000000000000000000081526004016106a290611ab7565b60405180910390fd5b60405180608001604052806007548152602001600181526020016106cf600c610d7f565b81526020016106de600c610d7f565b8152506006600060075481526020019081526020016000206000820151816000015560208201518160010155604082015181600201556060820151816003015590505061072d60075433610dbf565b6007600081548092919061074090611ced565b9190505550565b610752838383610f69565b505050565b6005805461076490611cbb565b80601f016020809104026020016040519081016040528092919081815260200182805461079090611cbb565b80156107dd5780601f106107b2576101008083540402835291602001916107dd565b820191906000526020600020905b8154815290600101906020018083116107c057829003601f168201915b505050505081565b61080083838360405180602001604052806000815250611271565b505050565b60006020528060005260406000206000915090505481565b60075481565b60006001600083815260200190815260200160002060009054906101000a900473ffffffffffffffffffffffffffffffffffffffff169050919050565b60008060008373ffffffffffffffffffffffffffffffffffffffff1673ffffffffffffffffffffffffffffffffffffffff168152602001908152602001600020549050919050565b60045481565b80600360003373ffffffffffffffffffffffffffffffffffffffff1673ffffffffffffffffffffffffffffffffffffffff16815260200190815260200160002060008473ffffffffffffffffffffffffffffffffffffffff1673ffffffffffffffffffffffffffffffffffffffff16815260200190815260200160002060006101000a81548160ff0219169083151502179055508173ffffffffffffffffffffffffffffffffffffffff163373ffffffffffffffffffffffffffffffffffffffff167f17307eab39ab6107e8899845ad3d59bd9653f200f220920489ca2b5937696c318360405161099f91906119fa565b60405180910390a35050565b60026020528060005260406000206000915054906101000a900473ffffffffffffffffffffffffffffffffffffffff1681565b610a2e85858585858080601f016020809104026020016040519081016040528093929190818152602001838380828437600081840152601f19601f82011690508083019250505050505050611271565b5050505050565b60016020528060005260406000206000915054906101000a900473ffffffffffffffffffffffffffffffffffffffff1681565b6060600582604051602001610a7e929190611934565b6040516020818303038152906040529050919050565b60075482108015610aa6575060075481105b610ae5576040517f08c379a0000000000000000000000000000000000000000000000000000000008152600401610adc90611af7565b60405180910390fd5b600060066000848152602001908152602001600020905060006006600084815260200190815260200160002090503373ffffffffffffffffffffffffffffffffffffffff16610b3385610823565b73ffffffffffffffffffffffffffffffffffffffff16148015610b8957503373ffffffffffffffffffffffffffffffffffffffff16610b7184610823565b73ffffffffffffffffffffffffffffffffffffffff16145b610bc8576040517f08c379a0000000000000000000000000000000000000000000000000000000008152600401610bbf90611a77565b60405180910390fd5b60008160010154836001015411610be3578160010154610be9565b82600101545b905060006001610bf96004610d7f565b11610c08578260020154610c0e565b83600201545b905060006001610c1e6004610d7f565b11610c2d578360030154610c33565b84600301545b9050604051806080016040528060075481526020018481526020018381526020018281525060066000600754815260200190815260200160002060008201518160000155602082015181600101556040820151816002015560608201518160030155905050610ca460075433610dbf565b60076000815480929190610cb790611ced565b919050555050505050505050565b6000600360008473ffffffffffffffffffffffffffffffffffffffff1673ffffffffffffffffffffffffffffffffffffffff16815260200190815260200160002060008373ffffffffffffffffffffffffffffffffffffffff1673ffffffffffffffffffffffffffffffffffffffff16815260200190815260200160002060009054906101000a900460ff16905092915050565b600860009054906101000a900473ffffffffffffffffffffffffffffffffffffffff1681565b6000814244604051602001610d95929190611967565b6040516020818303038152906040528051906020012060001c610db89190611d40565b9050919050565b600073ffffffffffffffffffffffffffffffffffffffff166001600084815260200190815260200160002060009054906101000a900473ffffffffffffffffffffffffffffffffffffffff1673ffffffffffffffffffffffffffffffffffffffff1614610e61576040517f08c379a0000000000000000000000000000000000000000000000000000000008152600401610e5890611a37565b60405180910390fd5b806001600084815260200190815260200160002060006101000a81548173ffffffffffffffffffffffffffffffffffffffff021916908373ffffffffffffffffffffffffffffffffffffffff16021790555060016000808373ffffffffffffffffffffffffffffffffffffffff1673ffffffffffffffffffffffffffffffffffffffff1681526020019081526020016000206000828254610f029190611b8a565b92505081905550818173ffffffffffffffffffffffffffffffffffffffff16600073ffffffffffffffffffffffffffffffffffffffff167fddf252ad1be2c89b69c2b068fc378daa952ba7f163c4a11628f55a4df523b3ef60405160405180910390a45050565b8060006001600083815260200190815260200160002060009054906101000a900473ffffffffffffffffffffffffffffffffffffffff1690503373ffffffffffffffffffffffffffffffffffffffff168173ffffffffffffffffffffffffffffffffffffffff16148061103a57503373ffffffffffffffffffffffffffffffffffffffff166002600084815260200190815260200160002060009054906101000a900473ffffffffffffffffffffffffffffffffffffffff1673ffffffffffffffffffffffffffffffffffffffff16145b806110d2575060011515600360008373ffffffffffffffffffffffffffffffffffffffff1673ffffffffffffffffffffffffffffffffffffffff16815260200190815260200160002060003373ffffffffffffffffffffffffffffffffffffffff1673ffffffffffffffffffffffffffffffffffffffff16815260200190815260200160002060009054906101000a900460ff161515145b611111576040517f08c379a000000000000000000000000000000000000000000000000000000000815260040161110890611a97565b60405180910390fd5b60016000808773ffffffffffffffffffffffffffffffffffffffff1673ffffffffffffffffffffffffffffffffffffffff16815260200190815260200160002060008282546111609190611be0565b9250508190555060016000808673ffffffffffffffffffffffffffffffffffffffff1673ffffffffffffffffffffffffffffffffffffffff16815260200190815260200160002060008282546111b69190611b8a565b92505081905550836001600085815260200190815260200160002060006101000a81548173ffffffffffffffffffffffffffffffffffffffff021916908373ffffffffffffffffffffffffffffffffffffffff160217905550828473ffffffffffffffffffffffffffffffffffffffff168673ffffffffffffffffffffffffffffffffffffffff167fddf252ad1be2c89b69c2b068fc378daa952ba7f163c4a11628f55a4df523b3ef60405160405180910390a45050505050565b61127c848484610f69565b61129b8373ffffffffffffffffffffffffffffffffffffffff166113c4565b156113be5760008373ffffffffffffffffffffffffffffffffffffffff1663150b7a02338786866040518563ffffffff1660e01b81526004016112e194939291906119ae565b602060405180830381600087803b1580156112fb57600080fd5b505af115801561130f573d6000803e3d6000fd5b505050506040513d601f19601f820116820180604052508101906113339190611659565b905063150b7a0260e01b7bffffffffffffffffffffffffffffffffffffffffffffffffffffffff1916817bffffffffffffffffffffffffffffffffffffffffffffffffffffffff1916146113bc576040517f08c379a00000000000000000000000000000000000000000000000000000000081526004016113b390611a57565b60405180910390fd5b505b50505050565b60008060007fc5d2460186f7233c927e7db2dcc703c0e500b653ca82273b7bfad8045d85a47060001b9050833f91506000801b82141580156114065750808214155b92505050919050565b60008135905061141e81611f7d565b92915050565b60008135905061143381611f94565b92915050565b60008151905061144881611fab565b92915050565b60008083601f84011261146057600080fd5b8235905067ffffffffffffffff81111561147957600080fd5b60208301915083600182028301111561149157600080fd5b9250929050565b6000813590506114a781611fc2565b92915050565b6000602082840312156114bf57600080fd5b60006114cd8482850161140f565b91505092915050565b600080604083850312156114e957600080fd5b60006114f78582860161140f565b92505060206115088582860161140f565b9150509250929050565b60008060006060848603121561152757600080fd5b60006115358682870161140f565b93505060206115468682870161140f565b925050604061155786828701611498565b9150509250925092565b60008060008060006080868803121561157957600080fd5b60006115878882890161140f565b95505060206115988882890161140f565b94505060406115a988828901611498565b935050606086013567ffffffffffffffff8111156115c657600080fd5b6115d28882890161144e565b92509250509295509295909350565b600080604083850312156115f457600080fd5b60006116028582860161140f565b925050602061161385828601611424565b9150509250929050565b6000806040838503121561163057600080fd5b600061163e8582860161140f565b925050602061164f85828601611498565b9150509250929050565b60006020828403121561166b57600080fd5b600061167984828501611439565b91505092915050565b60006020828403121561169457600080fd5b60006116a284828501611498565b91505092915050565b600080604083850312156116be57600080fd5b60006116cc85828601611498565b92505060206116dd85828601611498565b9150509250929050565b6116f081611c14565b82525050565b6116ff81611c26565b82525050565b600061171082611b47565b61171a8185611b5d565b935061172a818560208601611c88565b61173381611dfe565b840191505092915050565b600061174982611b52565b6117538185611b6e565b9350611763818560208601611c88565b61176c81611dfe565b840191505092915050565b6000815461178481611cbb565b61178e8186611b7f565b945060018216600081146117a957600181146117ba576117ed565b60ff198316865281860193506117ed565b6117c385611b32565b60005b838110156117e5578154818901526001820191506020810190506117c6565b838801955050505b50505092915050565b6000611803601983611b6e565b915061180e82611e0f565b602082019050919050565b6000611826603483611b6e565b915061183182611e38565b604082019050919050565b6000611849601883611b6e565b915061185482611e87565b602082019050919050565b600061186c601783611b6e565b915061187782611eb0565b602082019050919050565b600061188f600a83611b6e565b915061189a82611ed9565b602082019050919050565b60006118b2600e83611b6e565b91506118bd82611f02565b602082019050919050565b60006118d5600183611b7f565b91506118e082611f2b565b600182019050919050565b60006118f8601a83611b6e565b915061190382611f54565b602082019050919050565b61191781611c7e565b82525050565b61192e61192982611c7e565b611d36565b82525050565b60006119408285611777565b915061194b826118c8565b9150611957828461191d565b6020820191508190509392505050565b6000611973828561191d565b602082019150611983828461191d565b6020820191508190509392505050565b60006020820190506119a860008301846116e7565b92915050565b60006080820190506119c360008301876116e7565b6119d060208301866116e7565b6119dd604083018561190e565b81810360608301526119ef8184611705565b905095945050505050565b6000602082019050611a0f60008301846116f6565b92915050565b60006020820190508181036000830152611a2f818461173e565b905092915050565b60006020820190508181036000830152611a50816117f6565b9050919050565b60006020820190508181036000830152611a7081611819565b9050919050565b60006020820190508181036000830152611a908161183c565b9050919050565b60006020820190508181036000830152611ab08161185f565b9050919050565b60006020820190508181036000830152611ad081611882565b9050919050565b60006020820190508181036000830152611af0816118a5565b9050919050565b60006020820190508181036000830152611b10816118eb565b9050919050565b6000602082019050611b2c600083018461190e565b92915050565b60008190508160005260206000209050919050565b600081519050919050565b600081519050919050565b600082825260208201905092915050565b600082825260208201905092915050565b600081905092915050565b6000611b9582611c7e565b9150611ba083611c7e565b9250827fffffffffffffffffffffffffffffffffffffffffffffffffffffffffffffffff03821115611bd557611bd4611d71565b5b828201905092915050565b6000611beb82611c7e565b9150611bf683611c7e565b925082821015611c0957611c08611d71565b5b828203905092915050565b6000611c1f82611c5e565b9050919050565b60008115159050919050565b60007fffffffff0000000000000000000000000000000000000000000000000000000082169050919050565b600073ffffffffffffffffffffffffffffffffffffffff82169050919050565b6000819050919050565b60005b83811015611ca6578082015181840152602081019050611c8b565b83811115611cb5576000848401525b50505050565b60006002820490506001821680611cd357607f821691505b60208210811415611ce757611ce6611dcf565b5b50919050565b6000611cf882611c7e565b91507fffffffffffffffffffffffffffffffffffffffffffffffffffffffffffffffff821415611d2b57611d2a611d71565b5b600182019050919050565b6000819050919050565b6000611d4b82611c7e565b9150611d5683611c7e565b925082611d6657611d65611da0565b5b828206905092915050565b7f4e487b7100000000000000000000000000000000000000000000000000000000600052601160045260246000fd5b7f4e487b7100000000000000000000000000000000000000000000000000000000600052601260045260246000fd5b7f4e487b7100000000000000000000000000000000000000000000000000000000600052602260045260246000fd5b6000601f19601f8301169050919050565b7f5468697320746f6b656e20616c72656164792065786973747300000000000000600082015250565b7f526563697069656e7420736d61727420636f6e74726163742063616e6e6f742060008201527f68616e646c652045524337323120746f6b656e73000000000000000000000000602082015250565b7f4d757374206265206f776e6572206f66206b6974746965730000000000000000600082015250565b7f5472616e73666572206e6f7420617574686f72697a6564000000000000000000600082015250565b7f41646d696e206f6e6c7900000000000000000000000000000000000000000000600082015250565b7f4e6f7420617574686f72697a6564000000000000000000000000000000000000600082015250565b7f2f00000000000000000000000000000000000000000000000000000000000000600082015250565b7f5468652074776f206b697474696573206d757374206578697374000000000000600082015250565b611f8681611c14565b8114611f9157600080fd5b50565b611f9d81611c26565b8114611fa857600080fd5b50565b611fb481611c32565b8114611fbf57600080fd5b50565b611fcb81611c7e565b8114611fd657600080fd5b5056fea26469706673582212209cc8528222d75a68cf32564ba71dc303929dd0c0aafdadbc7ea1dd667b7b79bf64736f6c63430008010033",
  "immutableReferences": {},
  "source": "// SPDX-License-Identifier: UNLICENSED\npragma solidity ^0.8.1;\n\nimport \"./ERC721Token.sol\";\n\ncontract Cryptokitties is ERC721Token {\n    struct Kitty {\n        uint256 id;\n        uint256 generation;\n        uint256 geneA;\n        uint256 geneB;\n    }\n\n    mapping(uint256 => Kitty) private kitties;\n    uint256 public nextId;\n    address public admin;\n\n    constructor(string memory _tokenURIBase) ERC721Token(_tokenURIBase) {\n        admin = msg.sender;\n    }\n\n    function breed(uint256 kitty1Id, uint256 kitty2Id) external {\n        require(\n            kitty1Id < nextId && kitty2Id < nextId,\n            \"The two kitties must exist\"\n        );\n        Kitty storage kitty1 = kitties[kitty1Id];\n        Kitty storage kitty2 = kitties[kitty2Id];\n        require(\n            ownerOf(kitty1Id) == msg.sender && ownerOf(kitty2Id) == msg.sender,\n            \"Must be owner of kitties\"\n        );\n        uint256 maxGen =\n            kitty1.generation > kitty2.generation\n                ? kitty1.generation\n                : kitty2.generation;\n        uint256 geneA = _random(4) > 1 ? kitty1.geneA : kitty2.geneA;\n        uint256 geneB = _random(4) > 1 ? kitty1.geneB : kitty2.geneB;\n        kitties[nextId] = Kitty(nextId, maxGen, geneA, geneB);\n        _mint(nextId, msg.sender);\n        nextId++;\n    }\n\n    function mint() external {\n        require(msg.sender == admin, \"Admin only\");\n        // 1. Create kitty struct\n        kitties[nextId] = Kitty(nextId, 1, _random(12), _random(12));\n        // 2. Create actual NFT asset\n        _mint(nextId, msg.sender);\n        nextId++;\n    }\n\n    function _random(uint256 max) internal view returns (uint256) {\n        return\n            uint256(\n                keccak256(abi.encodePacked(block.timestamp, block.difficulty))\n            ) % max;\n    }\n}\n",
  "sourcePath": "/Users/heyyehudes/Documents/Dapp_30/cryptokitties/contracts/Cryptokitties.sol",
  "compiler": {
    "name": "solc",
    "version": "0.8.1+commit.df193b15.Emscripten.clang"
  },
  "schemaVersion": "3.3.1",
  "updatedAt": "2021-05-04T01:04:48.632Z",
  "networkType": "ethereum",
  "devdoc": {
    "kind": "dev",
    "methods": {},
    "version": 1
  },
  "userdoc": {
    "kind": "user",
    "methods": {},
    "version": 1
  }
}