{
  "contractName": "ERC721Token",
  "abi": [
    {
      "inputs": [
        {
          "internalType": "string",
          "name": "_tokenURIBase",
          "type": "string"
        }
      ],
      "stateMutability": "nonpayable",
      "type": "constructor"
    },
    {
      "anonymous": false,
      "inputs": [
        {
          "indexed": true,
          "internalType": "address",
          "name": "_owner",
          "type": "address"
        },
        {
          "indexed": true,
          "internalType": "address",
          "name": "_approved",
          "type": "address"
        },
        {
          "indexed": true,
          "internalType": "uint256",
          "name": "_tokenId",
          "type": "uint256"
        }
      ],
      "name": "Approval",
      "type": "event"
    },
    {
      "anonymous": false,
      "inputs": [
        {
          "indexed": true,
          "internalType": "address",
          "name": "_owner",
          "type": "address"
        },
        {
          "indexed": true,
          "internalType": "address",
          "name": "_operator",
          "type": "address"
        },
        {
          "indexed": false,
          "internalType": "bool",
          "name": "_approved",
          "type": "bool"
        }
      ],
      "name": "ApprovalForAll",
      "type": "event"
    },
    {
      "anonymous": false,
      "inputs": [
        {
          "indexed": true,
          "internalType": "address",
          "name": "_from",
          "type": "address"
        },
        {
          "indexed": true,
          "internalType": "address",
          "name": "_to",
          "type": "address"
        },
        {
          "indexed": true,
          "internalType": "uint256",
          "name": "_tokenId",
          "type": "uint256"
        }
      ],
      "name": "Transfer",
      "type": "event"
    },
    {
      "inputs": [
        {
          "internalType": "uint256",
          "name": "",
          "type": "uint256"
        }
      ],
      "name": "idToApproved",
      "outputs": [
        {
          "internalType": "address",
          "name": "",
          "type": "address"
        }
      ],
      "stateMutability": "view",
      "type": "function"
    },
    {
      "inputs": [
        {
          "internalType": "uint256",
          "name": "",
          "type": "uint256"
        }
      ],
      "name": "idToOwner",
      "outputs": [
        {
          "internalType": "address",
          "name": "",
          "type": "address"
        }
      ],
      "stateMutability": "view",
      "type": "function"
    },
    {
      "inputs": [],
      "name": "nextTokenId",
      "outputs": [
        {
          "internalType": "uint256",
          "name": "",
          "type": "uint256"
        }
      ],
      "stateMutability": "view",
      "type": "function"
    },
    {
      "inputs": [
        {
          "internalType": "address",
          "name": "",
          "type": "address"
        }
      ],
      "name": "ownerToTokenCount",
      "outputs": [
        {
          "internalType": "uint256",
          "name": "",
          "type": "uint256"
        }
      ],
      "stateMutability": "view",
      "type": "function"
    },
    {
      "inputs": [],
      "name": "tokenURIBase",
      "outputs": [
        {
          "internalType": "string",
          "name": "",
          "type": "string"
        }
      ],
      "stateMutability": "view",
      "type": "function"
    },
    {
      "inputs": [
        {
          "internalType": "uint256",
          "name": "_tokenId",
          "type": "uint256"
        }
      ],
      "name": "tokenURI",
      "outputs": [
        {
          "internalType": "string",
          "name": "",
          "type": "string"
        }
      ],
      "stateMutability": "view",
      "type": "function"
    },
    {
      "inputs": [
        {
          "internalType": "address",
          "name": "_owner",
          "type": "address"
        }
      ],
      "name": "balanceOf",
      "outputs": [
        {
          "internalType": "uint256",
          "name": "",
          "type": "uint256"
        }
      ],
      "stateMutability": "view",
      "type": "function"
    },
    {
      "inputs": [
        {
          "internalType": "uint256",
          "name": "_tokenId",
          "type": "uint256"
        }
      ],
      "name": "ownerOf",
      "outputs": [
        {
          "internalType": "address",
          "name": "",
          "type": "address"
        }
      ],
      "stateMutability": "view",
      "type": "function"
    },
    {
      "inputs": [
        {
          "internalType": "address",
          "name": "_from",
          "type": "address"
        },
        {
          "internalType": "address",
          "name": "_to",
          "type": "address"
        },
        {
          "internalType": "uint256",
          "name": "_tokenId",
          "type": "uint256"
        }
      ],
      "name": "safeTransferFrom",
      "outputs": [],
      "stateMutability": "payable",
      "type": "function"
    },
    {
      "inputs": [
        {
          "internalType": "address",
          "name": "_from",
          "type": "address"
        },
        {
          "internalType": "address",
          "name": "_to",
          "type": "address"
        },
        {
          "internalType": "uint256",
          "name": "_tokenId",
          "type": "uint256"
        },
        {
          "internalType": "bytes",
          "name": "data",
          "type": "bytes"
        }
      ],
      "name": "safeTransferFrom",
      "outputs": [],
      "stateMutability": "payable",
      "type": "function"
    },
    {
      "inputs": [
        {
          "internalType": "address",
          "name": "_from",
          "type": "address"
        },
        {
          "internalType": "address",
          "name": "_to",
          "type": "address"
        },
        {
          "internalType": "uint256",
          "name": "_tokenId",
          "type": "uint256"
        }
      ],
      "name": "transferFrom",
      "outputs": [],
      "stateMutability": "payable",
      "type": "function"
    },
    {
      "inputs": [
        {
          "internalType": "address",
          "name": "_approved",
          "type": "address"
        },
        {
          "internalType": "uint256",
          "name": "_tokenId",
          "type": "uint256"
        }
      ],
      "name": "approve",
      "outputs": [],
      "stateMutability": "payable",
      "type": "function"
    },
    {
      "inputs": [
        {
          "internalType": "address",
          "name": "_operator",
          "type": "address"
        },
        {
          "internalType": "bool",
          "name": "_approved",
          "type": "bool"
        }
      ],
      "name": "setApprovalForAll",
      "outputs": [],
      "stateMutability": "nonpayable",
      "type": "function"
    },
    {
      "inputs": [
        {
          "internalType": "uint256",
          "name": "_tokenId",
          "type": "uint256"
        }
      ],
      "name": "getApproved",
      "outputs": [
        {
          "internalType": "address",
          "name": "",
          "type": "address"
        }
      ],
      "stateMutability": "view",
      "type": "function"
    },
    {
      "inputs": [
        {
          "internalType": "address",
          "name": "_owner",
          "type": "address"
        },
        {
          "internalType": "address",
          "name": "_operator",
          "type": "address"
        }
      ],
      "name": "isApprovedForAll",
      "outputs": [
        {
          "internalType": "bool",
          "name": "",
          "type": "bool"
        }
      ],
      "stateMutability": "view",
      "type": "function"
    }
  ],
  "bytecode": "0x60806040523480156200001157600080fd5b5060405162001a5738038062001a57833981810160405281019062000037919062000179565b80600590805190602001906200004f92919062000057565b50506200032e565b828054620000659062000253565b90600052602060002090601f016020900481019282620000895760008555620000d5565b82601f10620000a457805160ff1916838001178555620000d5565b82800160010185558215620000d5579182015b82811115620000d4578251825591602001919060010190620000b7565b5b509050620000e49190620000e8565b5090565b5b8082111562000103576000816000905550600101620000e9565b5090565b60006200011e6200011884620001e7565b620001be565b9050828152602081018484840111156200013757600080fd5b620001448482856200021d565b509392505050565b600082601f8301126200015e57600080fd5b81516200017084826020860162000107565b91505092915050565b6000602082840312156200018c57600080fd5b600082015167ffffffffffffffff811115620001a757600080fd5b620001b5848285016200014c565b91505092915050565b6000620001ca620001dd565b9050620001d8828262000289565b919050565b6000604051905090565b600067ffffffffffffffff821115620002055762000204620002ee565b5b62000210826200031d565b9050602081019050919050565b60005b838110156200023d57808201518184015260208101905062000220565b838111156200024d576000848401525b50505050565b600060028204905060018216806200026c57607f821691505b60208210811415620002835762000282620002bf565b5b50919050565b62000294826200031d565b810181811067ffffffffffffffff82111715620002b657620002b5620002ee565b5b80604052505050565b7f4e487b7100000000000000000000000000000000000000000000000000000000600052602260045260246000fd5b7f4e487b7100000000000000000000000000000000000000000000000000000000600052604160045260246000fd5b6000601f19601f8301169050919050565b611719806200033e6000396000f3fe6080604052600436106100e85760003560e01c806370a082311161008a578063b88d4fde11610059578063b88d4fde146102f1578063bfc206ed1461030d578063c87b56dd1461034a578063e985e9c514610387576100e8565b806370a082311461022357806375794a3c14610260578063a22cb4651461028b578063b088d74b146102b4576100e8565b8063261220a3116100c6578063261220a31461016257806342842e0e1461018d57806346692f51146101a95780636352211e146101e6576100e8565b8063081812fc146100ed578063095ea7b31461012a57806323b872dd14610146575b600080fd5b3480156100f957600080fd5b50610114600480360381019061010f919061104d565b6103c4565b604051610121919061126a565b60405180910390f35b610144600480360381019061013f9190610fe8565b610401565b005b610160600480360381019061015b9190610edd565b610559565b005b34801561016e57600080fd5b50610177610569565b60405161018491906112ec565b60405180910390f35b6101a760048036038101906101a29190610edd565b6105f7565b005b3480156101b557600080fd5b506101d060048036038101906101cb9190610e78565b610617565b6040516101dd919061136e565b60405180910390f35b3480156101f257600080fd5b5061020d6004803603810190610208919061104d565b61062f565b60405161021a919061126a565b60405180910390f35b34801561022f57600080fd5b5061024a60048036038101906102459190610e78565b61066c565b604051610257919061136e565b60405180910390f35b34801561026c57600080fd5b506102756106b4565b604051610282919061136e565b60405180910390f35b34801561029757600080fd5b506102b260048036038101906102ad9190610fac565b6106ba565b005b3480156102c057600080fd5b506102db60048036038101906102d6919061104d565b6107b7565b6040516102e8919061126a565b60405180910390f35b61030b60048036038101906103069190610f2c565b6107ea565b005b34801561031957600080fd5b50610334600480360381019061032f919061104d565b610841565b604051610341919061126a565b60405180910390f35b34801561035657600080fd5b50610371600480360381019061036c919061104d565b610874565b60405161037e91906112ec565b60405180910390f35b34801561039357600080fd5b506103ae60048036038101906103a99190610ea1565b6108a0565b6040516103bb91906112d1565b60405180910390f35b60006002600083815260200190815260200160002060009054906101000a900473ffffffffffffffffffffffffffffffffffffffff169050919050565b60006001600083815260200190815260200160002060009054906101000a900473ffffffffffffffffffffffffffffffffffffffff1690508073ffffffffffffffffffffffffffffffffffffffff163373ffffffffffffffffffffffffffffffffffffffff16146104a7576040517f08c379a000000000000000000000000000000000000000000000000000000000815260040161049e9061134e565b60405180910390fd5b826002600084815260200190815260200160002060006101000a81548173ffffffffffffffffffffffffffffffffffffffff021916908373ffffffffffffffffffffffffffffffffffffffff160217905550818373ffffffffffffffffffffffffffffffffffffffff168273ffffffffffffffffffffffffffffffffffffffff167f8c5be1e5ebec7d5bd14f71427d1e84f3dd0314c0f7b2291e5b200ac8c7c3b92560405160405180910390a4505050565b610564838383610934565b505050565b6005805461057690611512565b80601f01602080910402602001604051908101604052809291908181526020018280546105a290611512565b80156105ef5780601f106105c4576101008083540402835291602001916105ef565b820191906000526020600020905b8154815290600101906020018083116105d257829003601f168201915b505050505081565b61061283838360405180602001604052806000815250610c3c565b505050565b60006020528060005260406000206000915090505481565b60006001600083815260200190815260200160002060009054906101000a900473ffffffffffffffffffffffffffffffffffffffff169050919050565b60008060008373ffffffffffffffffffffffffffffffffffffffff1673ffffffffffffffffffffffffffffffffffffffff168152602001908152602001600020549050919050565b60045481565b80600360003373ffffffffffffffffffffffffffffffffffffffff1673ffffffffffffffffffffffffffffffffffffffff16815260200190815260200160002060008473ffffffffffffffffffffffffffffffffffffffff1673ffffffffffffffffffffffffffffffffffffffff16815260200190815260200160002060006101000a81548160ff0219169083151502179055508173ffffffffffffffffffffffffffffffffffffffff163373ffffffffffffffffffffffffffffffffffffffff167f17307eab39ab6107e8899845ad3d59bd9653f200f220920489ca2b5937696c31836040516107ab91906112d1565b60405180910390a35050565b60026020528060005260406000206000915054906101000a900473ffffffffffffffffffffffffffffffffffffffff1681565b61083a85858585858080601f016020809104026020016040519081016040528093929190818152602001838380828437600081840152601f19601f82011690508083019250505050505050610c3c565b5050505050565b60016020528060005260406000206000915054906101000a900473ffffffffffffffffffffffffffffffffffffffff1681565b606060058260405160200161088a929190611237565b6040516020818303038152906040529050919050565b6000600360008473ffffffffffffffffffffffffffffffffffffffff1673ffffffffffffffffffffffffffffffffffffffff16815260200190815260200160002060008373ffffffffffffffffffffffffffffffffffffffff1673ffffffffffffffffffffffffffffffffffffffff16815260200190815260200160002060009054906101000a900460ff16905092915050565b8060006001600083815260200190815260200160002060009054906101000a900473ffffffffffffffffffffffffffffffffffffffff1690503373ffffffffffffffffffffffffffffffffffffffff168173ffffffffffffffffffffffffffffffffffffffff161480610a0557503373ffffffffffffffffffffffffffffffffffffffff166002600084815260200190815260200160002060009054906101000a900473ffffffffffffffffffffffffffffffffffffffff1673ffffffffffffffffffffffffffffffffffffffff16145b80610a9d575060011515600360008373ffffffffffffffffffffffffffffffffffffffff1673ffffffffffffffffffffffffffffffffffffffff16815260200190815260200160002060003373ffffffffffffffffffffffffffffffffffffffff1673ffffffffffffffffffffffffffffffffffffffff16815260200190815260200160002060009054906101000a900460ff161515145b610adc576040517f08c379a0000000000000000000000000000000000000000000000000000000008152600401610ad39061132e565b60405180910390fd5b60016000808773ffffffffffffffffffffffffffffffffffffffff1673ffffffffffffffffffffffffffffffffffffffff1681526020019081526020016000206000828254610b2b9190611437565b9250508190555060016000808673ffffffffffffffffffffffffffffffffffffffff1673ffffffffffffffffffffffffffffffffffffffff1681526020019081526020016000206000828254610b8191906113e1565b92505081905550836001600085815260200190815260200160002060006101000a81548173ffffffffffffffffffffffffffffffffffffffff021916908373ffffffffffffffffffffffffffffffffffffffff160217905550828473ffffffffffffffffffffffffffffffffffffffff168673ffffffffffffffffffffffffffffffffffffffff167fddf252ad1be2c89b69c2b068fc378daa952ba7f163c4a11628f55a4df523b3ef60405160405180910390a45050505050565b610c47848484610934565b610c668373ffffffffffffffffffffffffffffffffffffffff16610d8f565b15610d895760008373ffffffffffffffffffffffffffffffffffffffff1663150b7a02338786866040518563ffffffff1660e01b8152600401610cac9493929190611285565b602060405180830381600087803b158015610cc657600080fd5b505af1158015610cda573d6000803e3d6000fd5b505050506040513d601f19601f82011682018060405250810190610cfe9190611024565b905063150b7a0260e01b7bffffffffffffffffffffffffffffffffffffffffffffffffffffffff1916817bffffffffffffffffffffffffffffffffffffffffffffffffffffffff191614610d87576040517f08c379a0000000000000000000000000000000000000000000000000000000008152600401610d7e9061130e565b60405180910390fd5b505b50505050565b60008060007fc5d2460186f7233c927e7db2dcc703c0e500b653ca82273b7bfad8045d85a47060001b9050833f91506000801b8214158015610dd15750808214155b92505050919050565b600081359050610de981611687565b92915050565b600081359050610dfe8161169e565b92915050565b600081519050610e13816116b5565b92915050565b60008083601f840112610e2b57600080fd5b8235905067ffffffffffffffff811115610e4457600080fd5b602083019150836001820283011115610e5c57600080fd5b9250929050565b600081359050610e72816116cc565b92915050565b600060208284031215610e8a57600080fd5b6000610e9884828501610dda565b91505092915050565b60008060408385031215610eb457600080fd5b6000610ec285828601610dda565b9250506020610ed385828601610dda565b9150509250929050565b600080600060608486031215610ef257600080fd5b6000610f0086828701610dda565b9350506020610f1186828701610dda565b9250506040610f2286828701610e63565b9150509250925092565b600080600080600060808688031215610f4457600080fd5b6000610f5288828901610dda565b9550506020610f6388828901610dda565b9450506040610f7488828901610e63565b935050606086013567ffffffffffffffff811115610f9157600080fd5b610f9d88828901610e19565b92509250509295509295909350565b60008060408385031215610fbf57600080fd5b6000610fcd85828601610dda565b9250506020610fde85828601610def565b9150509250929050565b60008060408385031215610ffb57600080fd5b600061100985828601610dda565b925050602061101a85828601610e63565b9150509250929050565b60006020828403121561103657600080fd5b600061104484828501610e04565b91505092915050565b60006020828403121561105f57600080fd5b600061106d84828501610e63565b91505092915050565b61107f8161146b565b82525050565b61108e8161147d565b82525050565b600061109f8261139e565b6110a981856113b4565b93506110b98185602086016114df565b6110c2816115ac565b840191505092915050565b60006110d8826113a9565b6110e281856113c5565b93506110f28185602086016114df565b6110fb816115ac565b840191505092915050565b6000815461111381611512565b61111d81866113d6565b9450600182166000811461113857600181146111495761117c565b60ff1983168652818601935061117c565b61115285611389565b60005b8381101561117457815481890152600182019150602081019050611155565b838801955050505b50505092915050565b60006111926034836113c5565b915061119d826115bd565b604082019050919050565b60006111b56017836113c5565b91506111c08261160c565b602082019050919050565b60006111d8600e836113c5565b91506111e382611635565b602082019050919050565b60006111fb6001836113d6565b91506112068261165e565b600182019050919050565b61121a816114d5565b82525050565b61123161122c826114d5565b611544565b82525050565b60006112438285611106565b915061124e826111ee565b915061125a8284611220565b6020820191508190509392505050565b600060208201905061127f6000830184611076565b92915050565b600060808201905061129a6000830187611076565b6112a76020830186611076565b6112b46040830185611211565b81810360608301526112c68184611094565b905095945050505050565b60006020820190506112e66000830184611085565b92915050565b6000602082019050818103600083015261130681846110cd565b905092915050565b6000602082019050818103600083015261132781611185565b9050919050565b60006020820190508181036000830152611347816111a8565b9050919050565b60006020820190508181036000830152611367816111cb565b9050919050565b60006020820190506113836000830184611211565b92915050565b60008190508160005260206000209050919050565b600081519050919050565b600081519050919050565b600082825260208201905092915050565b600082825260208201905092915050565b600081905092915050565b60006113ec826114d5565b91506113f7836114d5565b9250827fffffffffffffffffffffffffffffffffffffffffffffffffffffffffffffffff0382111561142c5761142b61154e565b5b828201905092915050565b6000611442826114d5565b915061144d836114d5565b9250828210156114605761145f61154e565b5b828203905092915050565b6000611476826114b5565b9050919050565b60008115159050919050565b60007fffffffff0000000000000000000000000000000000000000000000000000000082169050919050565b600073ffffffffffffffffffffffffffffffffffffffff82169050919050565b6000819050919050565b60005b838110156114fd5780820151818401526020810190506114e2565b8381111561150c576000848401525b50505050565b6000600282049050600182168061152a57607f821691505b6020821081141561153e5761153d61157d565b5b50919050565b6000819050919050565b7f4e487b7100000000000000000000000000000000000000000000000000000000600052601160045260246000fd5b7f4e487b7100000000000000000000000000000000000000000000000000000000600052602260045260246000fd5b6000601f19601f8301169050919050565b7f526563697069656e7420736d61727420636f6e74726163742063616e6e6f742060008201527f68616e646c652045524337323120746f6b656e73000000000000000000000000602082015250565b7f5472616e73666572206e6f7420617574686f72697a6564000000000000000000600082015250565b7f4e6f7420617574686f72697a6564000000000000000000000000000000000000600082015250565b7f2f00000000000000000000000000000000000000000000000000000000000000600082015250565b6116908161146b565b811461169b57600080fd5b50565b6116a78161147d565b81146116b257600080fd5b50565b6116be81611489565b81146116c957600080fd5b50565b6116d5816114d5565b81146116e057600080fd5b5056fea2646970667358221220193210fa201ecc9dde237f7d0a4653283433ef67edc3d84f35150b83098b7a3e64736f6c63430008010033",
  "immutableReferences": {},
  "source": "// SPDX-License-Identifier: UNLICENSED\npragma solidity 0.8.1;\n\nimport {ERC721Interface} from \"./ERC721Interface.sol\";\nimport {ERC721Receiver} from \"./ERC721Receiver.sol\";\n\n/**\n * @dev Utility library of inline functions on addresses.\n * @notice Based on:\n * https://github.com/OpenZeppelin/openzeppelin-contracts/blob/master/contracts/utils/Address.sol\n * Requires EIP-1052.\n */\nlibrary AddressUtils {\n    /**\n     * @dev Returns whether the target address is a contract.\n     * @param _addr Address to check.\n     * @return addressCheck True if _addr is a contract, false if not.\n     */\n    function isContract(address _addr)\n        internal\n        view\n        returns (bool addressCheck)\n    {\n        // This method relies in extcodesize, which returns 0 for contracts in\n        // construction, since the code is only stored at the end of the\n        // constructor execution.\n\n        // According to EIP-1052, 0x0 is the value returned for not-yet created accounts\n        // and 0xc5d2460186f7233c927e7db2dcc703c0e500b653ca82273b7bfad8045d85a470 is returned\n        // for accounts without code, i.e. `keccak256('')`\n        bytes32 codehash;\n        bytes32 accountHash =\n            0xc5d2460186f7233c927e7db2dcc703c0e500b653ca82273b7bfad8045d85a470;\n        assembly {\n            codehash := extcodehash(_addr)\n        } // solhint-disable-line\n        addressCheck = (codehash != 0x0 && codehash != accountHash);\n    }\n}\n\ncontract ERC721Token is ERC721Interface {\n    using AddressUtils for address;\n    mapping(address => uint256) public ownerToTokenCount;\n    mapping(uint256 => address) public idToOwner;\n    mapping(uint256 => address) public idToApproved;\n    mapping(address => mapping(address => bool)) private ownerToOperators;\n    bytes4 internal constant MAGIC_ON_ERC721_RECEIVED = 0x150b7a02;\n\n    uint256 public nextTokenId;\n    string public tokenURIBase;\n\n    constructor(string memory _tokenURIBase) {\n        tokenURIBase = _tokenURIBase;\n    }\n\n    function _mint(uint256 _tokenId, address owner) internal {\n        require(idToOwner[_tokenId] == address(0), \"This token already exists\");\n        idToOwner[_tokenId] = owner;\n        ownerToTokenCount[owner] += 1;\n        emit Transfer(address(0), owner, _tokenId);\n    }\n\n    function tokenURI(uint256 _tokenId) external view returns (string memory) {\n        return string(abi.encodePacked(tokenURIBase, \"/\", _tokenId));\n    }\n\n    function balanceOf(address _owner)\n        external\n        view\n        override\n        returns (uint256)\n    {\n        return ownerToTokenCount[_owner];\n    }\n\n    function ownerOf(uint256 _tokenId) public view override returns (address) {\n        return idToOwner[_tokenId];\n    }\n\n    // For smart contracts\n    function safeTransferFrom(\n        address _from,\n        address _to,\n        uint256 _tokenId,\n        bytes calldata data\n    ) external payable override {\n        _safeTransferFrom(_from, _to, _tokenId, data);\n    }\n\n    function safeTransferFrom(\n        address _from,\n        address _to,\n        uint256 _tokenId\n    ) external payable override {\n        _safeTransferFrom(_from, _to, _tokenId, \"\");\n    }\n\n    function transferFrom(\n        address _from,\n        address _to,\n        uint256 _tokenId\n    ) external payable override {\n        _transfer(_from, _to, _tokenId);\n    }\n\n    function approve(address _approved, uint256 _tokenId)\n        external\n        payable\n        override\n    {\n        address owner = idToOwner[_tokenId];\n        require(msg.sender == owner, \"Not authorized\");\n        idToApproved[_tokenId] = _approved;\n        emit Approval(owner, _approved, _tokenId);\n    }\n\n    function setApprovalForAll(address _operator, bool _approved)\n        external\n        override\n    {\n        ownerToOperators[msg.sender][_operator] = _approved;\n        emit ApprovalForAll(msg.sender, _operator, _approved);\n    }\n\n    function getApproved(uint256 _tokenId)\n        external\n        view\n        override\n        returns (address)\n    {\n        return idToApproved[_tokenId];\n    }\n\n    function isApprovedForAll(address _owner, address _operator)\n        external\n        view\n        override\n        returns (bool)\n    {\n        return ownerToOperators[_owner][_operator];\n    }\n\n    function _safeTransferFrom(\n        address _from,\n        address _to,\n        uint256 _tokenId,\n        bytes memory data\n    ) internal {\n        _transfer(_from, _to, _tokenId);\n\n        // Verify whether or not recipient is smart contract\n        if (_to.isContract()) {\n            bytes4 retval =\n                ERC721Receiver(_to).onERC721Received(\n                    msg.sender,\n                    _from,\n                    _tokenId,\n                    data\n                );\n            require(\n                retval == MAGIC_ON_ERC721_RECEIVED,\n                \"Recipient smart contract cannot handle ERC721 tokens\"\n            );\n        }\n    }\n\n    function _transfer(\n        address _from,\n        address _to,\n        uint256 _tokenId\n    ) internal canTransfer(_tokenId) {\n        ownerToTokenCount[_from] -= 1;\n        ownerToTokenCount[_to] += 1;\n        idToOwner[_tokenId] = _to;\n        emit Transfer(_from, _to, _tokenId);\n    }\n\n    modifier canTransfer(uint256 _tokenId) {\n        address owner = idToOwner[_tokenId];\n        require(\n            owner == msg.sender ||\n                idToApproved[_tokenId] == msg.sender ||\n                ownerToOperators[owner][msg.sender] == true,\n            \"Transfer not authorized\"\n        );\n        _;\n    }\n}\n",
  "sourcePath": "/Users/heyyehudes/Documents/Dapp_30/cryptokitties/contracts/ERC721Token.sol",
  "compiler": {
    "name": "solc",
    "version": "0.8.1+commit.df193b15.Emscripten.clang"
  },
  "schemaVersion": "3.3.1",
  "updatedAt": "2021-05-04T01:04:42.723Z",
  "devdoc": {
    "kind": "dev",
    "methods": {},
    "version": 1
  },
  "userdoc": {
    "kind": "user",
    "methods": {},
    "version": 1
  }
}