{
  "contractName": "ERC721Token",
  "abi": [
    {
      "inputs": [
        {
          "internalType": "string",
          "name": "_tokenURIBase",
          "type": "string"
        }
      ],
      "stateMutability": "nonpayable",
      "type": "constructor"
    },
    {
      "anonymous": false,
      "inputs": [
        {
          "indexed": true,
          "internalType": "address",
          "name": "_owner",
          "type": "address"
        },
        {
          "indexed": true,
          "internalType": "address",
          "name": "_approved",
          "type": "address"
        },
        {
          "indexed": true,
          "internalType": "uint256",
          "name": "_tokenId",
          "type": "uint256"
        }
      ],
      "name": "Approval",
      "type": "event"
    },
    {
      "anonymous": false,
      "inputs": [
        {
          "indexed": true,
          "internalType": "address",
          "name": "_owner",
          "type": "address"
        },
        {
          "indexed": true,
          "internalType": "address",
          "name": "_operator",
          "type": "address"
        },
        {
          "indexed": false,
          "internalType": "bool",
          "name": "_approved",
          "type": "bool"
        }
      ],
      "name": "ApprovalForAll",
      "type": "event"
    },
    {
      "anonymous": false,
      "inputs": [
        {
          "indexed": true,
          "internalType": "address",
          "name": "_from",
          "type": "address"
        },
        {
          "indexed": true,
          "internalType": "address",
          "name": "_to",
          "type": "address"
        },
        {
          "indexed": true,
          "internalType": "uint256",
          "name": "_tokenId",
          "type": "uint256"
        }
      ],
      "name": "Transfer",
      "type": "event"
    },
    {
      "inputs": [],
      "name": "admin",
      "outputs": [
        {
          "internalType": "address",
          "name": "",
          "type": "address"
        }
      ],
      "stateMutability": "view",
      "type": "function"
    },
    {
      "inputs": [
        {
          "internalType": "uint256",
          "name": "",
          "type": "uint256"
        }
      ],
      "name": "idToApproved",
      "outputs": [
        {
          "internalType": "address",
          "name": "",
          "type": "address"
        }
      ],
      "stateMutability": "view",
      "type": "function"
    },
    {
      "inputs": [
        {
          "internalType": "uint256",
          "name": "",
          "type": "uint256"
        }
      ],
      "name": "idToOwner",
      "outputs": [
        {
          "internalType": "address",
          "name": "",
          "type": "address"
        }
      ],
      "stateMutability": "view",
      "type": "function"
    },
    {
      "inputs": [],
      "name": "name",
      "outputs": [
        {
          "internalType": "string",
          "name": "",
          "type": "string"
        }
      ],
      "stateMutability": "view",
      "type": "function"
    },
    {
      "inputs": [],
      "name": "nextTokenId",
      "outputs": [
        {
          "internalType": "uint256",
          "name": "",
          "type": "uint256"
        }
      ],
      "stateMutability": "view",
      "type": "function"
    },
    {
      "inputs": [
        {
          "internalType": "address",
          "name": "",
          "type": "address"
        }
      ],
      "name": "ownerToTokenCount",
      "outputs": [
        {
          "internalType": "uint256",
          "name": "",
          "type": "uint256"
        }
      ],
      "stateMutability": "view",
      "type": "function"
    },
    {
      "inputs": [],
      "name": "symbol",
      "outputs": [
        {
          "internalType": "string",
          "name": "",
          "type": "string"
        }
      ],
      "stateMutability": "view",
      "type": "function"
    },
    {
      "inputs": [],
      "name": "tokenURIBase",
      "outputs": [
        {
          "internalType": "string",
          "name": "",
          "type": "string"
        }
      ],
      "stateMutability": "view",
      "type": "function"
    },
    {
      "inputs": [
        {
          "internalType": "uint256",
          "name": "_tokenId",
          "type": "uint256"
        }
      ],
      "name": "tokenURI",
      "outputs": [
        {
          "internalType": "string",
          "name": "",
          "type": "string"
        }
      ],
      "stateMutability": "view",
      "type": "function"
    },
    {
      "inputs": [
        {
          "internalType": "address",
          "name": "_owner",
          "type": "address"
        }
      ],
      "name": "balanceOf",
      "outputs": [
        {
          "internalType": "uint256",
          "name": "",
          "type": "uint256"
        }
      ],
      "stateMutability": "view",
      "type": "function"
    },
    {
      "inputs": [
        {
          "internalType": "uint256",
          "name": "_tokenId",
          "type": "uint256"
        }
      ],
      "name": "ownerOf",
      "outputs": [
        {
          "internalType": "address",
          "name": "",
          "type": "address"
        }
      ],
      "stateMutability": "view",
      "type": "function"
    },
    {
      "inputs": [
        {
          "internalType": "address",
          "name": "_from",
          "type": "address"
        },
        {
          "internalType": "address",
          "name": "_to",
          "type": "address"
        },
        {
          "internalType": "uint256",
          "name": "_tokenId",
          "type": "uint256"
        }
      ],
      "name": "safeTransferFrom",
      "outputs": [],
      "stateMutability": "payable",
      "type": "function"
    },
    {
      "inputs": [
        {
          "internalType": "address",
          "name": "_from",
          "type": "address"
        },
        {
          "internalType": "address",
          "name": "_to",
          "type": "address"
        },
        {
          "internalType": "uint256",
          "name": "_tokenId",
          "type": "uint256"
        },
        {
          "internalType": "bytes",
          "name": "data",
          "type": "bytes"
        }
      ],
      "name": "safeTransferFrom",
      "outputs": [],
      "stateMutability": "payable",
      "type": "function"
    },
    {
      "inputs": [
        {
          "internalType": "address",
          "name": "_from",
          "type": "address"
        },
        {
          "internalType": "address",
          "name": "_to",
          "type": "address"
        },
        {
          "internalType": "uint256",
          "name": "_tokenId",
          "type": "uint256"
        }
      ],
      "name": "transferFrom",
      "outputs": [],
      "stateMutability": "payable",
      "type": "function"
    },
    {
      "inputs": [
        {
          "internalType": "address",
          "name": "_approved",
          "type": "address"
        },
        {
          "internalType": "uint256",
          "name": "_tokenId",
          "type": "uint256"
        }
      ],
      "name": "approve",
      "outputs": [],
      "stateMutability": "payable",
      "type": "function"
    },
    {
      "inputs": [
        {
          "internalType": "address",
          "name": "_operator",
          "type": "address"
        },
        {
          "internalType": "bool",
          "name": "_approved",
          "type": "bool"
        }
      ],
      "name": "setApprovalForAll",
      "outputs": [],
      "stateMutability": "nonpayable",
      "type": "function"
    },
    {
      "inputs": [
        {
          "internalType": "uint256",
          "name": "_tokenId",
          "type": "uint256"
        }
      ],
      "name": "getApproved",
      "outputs": [
        {
          "internalType": "address",
          "name": "",
          "type": "address"
        }
      ],
      "stateMutability": "view",
      "type": "function"
    },
    {
      "inputs": [
        {
          "internalType": "address",
          "name": "_owner",
          "type": "address"
        },
        {
          "internalType": "address",
          "name": "_operator",
          "type": "address"
        }
      ],
      "name": "isApprovedForAll",
      "outputs": [
        {
          "internalType": "bool",
          "name": "",
          "type": "bool"
        }
      ],
      "stateMutability": "view",
      "type": "function"
    }
  ],
  "bytecode": "0x60806040523480156200001157600080fd5b5060405162001c3b38038062001c3b833981810160405281019062000037919062000179565b80600890805190602001906200004f92919062000057565b50506200032e565b828054620000659062000253565b90600052602060002090601f016020900481019282620000895760008555620000d5565b82601f10620000a457805160ff1916838001178555620000d5565b82800160010185558215620000d5579182015b82811115620000d4578251825591602001919060010190620000b7565b5b509050620000e49190620000e8565b5090565b5b8082111562000103576000816000905550600101620000e9565b5090565b60006200011e6200011884620001e7565b620001be565b9050828152602081018484840111156200013757600080fd5b620001448482856200021d565b509392505050565b600082601f8301126200015e57600080fd5b81516200017084826020860162000107565b91505092915050565b6000602082840312156200018c57600080fd5b600082015167ffffffffffffffff811115620001a757600080fd5b620001b5848285016200014c565b91505092915050565b6000620001ca620001dd565b9050620001d8828262000289565b919050565b6000604051905090565b600067ffffffffffffffff821115620002055762000204620002ee565b5b62000210826200031d565b9050602081019050919050565b60005b838110156200023d57808201518184015260208101905062000220565b838111156200024d576000848401525b50505050565b600060028204905060018216806200026c57607f821691505b60208210811415620002835762000282620002bf565b5b50919050565b62000294826200031d565b810181811067ffffffffffffffff82111715620002b657620002b5620002ee565b5b80604052505050565b7f4e487b7100000000000000000000000000000000000000000000000000000000600052602260045260246000fd5b7f4e487b7100000000000000000000000000000000000000000000000000000000600052604160045260246000fd5b6000601f19601f8301169050919050565b6118fd806200033e6000396000f3fe6080604052600436106101095760003560e01c806375794a3c11610095578063b88d4fde11610064578063b88d4fde14610368578063bfc206ed14610384578063c87b56dd146103c1578063e985e9c5146103fe578063f851a4401461043b57610109565b806375794a3c146102ac57806395d89b41146102d7578063a22cb46514610302578063b088d74b1461032b57610109565b8063261220a3116100dc578063261220a3146101ae57806342842e0e146101d957806346692f51146101f55780636352211e1461023257806370a082311461026f57610109565b806306fdde031461010e578063081812fc14610139578063095ea7b31461017657806323b872dd14610192575b600080fd5b34801561011a57600080fd5b50610123610466565b60405161013091906114d0565b60405180910390f35b34801561014557600080fd5b50610160600480360381019061015b9190611231565b6104f4565b60405161016d919061144e565b60405180910390f35b610190600480360381019061018b91906111cc565b610531565b005b6101ac60048036038101906101a791906110c1565b610689565b005b3480156101ba57600080fd5b506101c3610699565b6040516101d091906114d0565b60405180910390f35b6101f360048036038101906101ee91906110c1565b610727565b005b34801561020157600080fd5b5061021c6004803603810190610217919061105c565b610747565b6040516102299190611552565b60405180910390f35b34801561023e57600080fd5b5061025960048036038101906102549190611231565b61075f565b604051610266919061144e565b60405180910390f35b34801561027b57600080fd5b506102966004803603810190610291919061105c565b61079c565b6040516102a39190611552565b60405180910390f35b3480156102b857600080fd5b506102c16107e4565b6040516102ce9190611552565b60405180910390f35b3480156102e357600080fd5b506102ec6107ea565b6040516102f991906114d0565b60405180910390f35b34801561030e57600080fd5b5061032960048036038101906103249190611190565b610878565b005b34801561033757600080fd5b50610352600480360381019061034d9190611231565b610975565b60405161035f919061144e565b60405180910390f35b610382600480360381019061037d9190611110565b6109a8565b005b34801561039057600080fd5b506103ab60048036038101906103a69190611231565b6109ff565b6040516103b8919061144e565b60405180910390f35b3480156103cd57600080fd5b506103e860048036038101906103e39190611231565b610a32565b6040516103f591906114d0565b60405180910390f35b34801561040a57600080fd5b5061042560048036038101906104209190611085565b610a5e565b60405161043291906114b5565b60405180910390f35b34801561044757600080fd5b50610450610af2565b60405161045d919061144e565b60405180910390f35b60068054610473906116f6565b80601f016020809104026020016040519081016040528092919081815260200182805461049f906116f6565b80156104ec5780601f106104c1576101008083540402835291602001916104ec565b820191906000526020600020905b8154815290600101906020018083116104cf57829003601f168201915b505050505081565b60006002600083815260200190815260200160002060009054906101000a900473ffffffffffffffffffffffffffffffffffffffff169050919050565b60006001600083815260200190815260200160002060009054906101000a900473ffffffffffffffffffffffffffffffffffffffff1690508073ffffffffffffffffffffffffffffffffffffffff163373ffffffffffffffffffffffffffffffffffffffff16146105d7576040517f08c379a00000000000000000000000000000000000000000000000000000000081526004016105ce90611532565b60405180910390fd5b826002600084815260200190815260200160002060006101000a81548173ffffffffffffffffffffffffffffffffffffffff021916908373ffffffffffffffffffffffffffffffffffffffff160217905550818373ffffffffffffffffffffffffffffffffffffffff168273ffffffffffffffffffffffffffffffffffffffff167f8c5be1e5ebec7d5bd14f71427d1e84f3dd0314c0f7b2291e5b200ac8c7c3b92560405160405180910390a4505050565b610694838383610b18565b505050565b600880546106a6906116f6565b80601f01602080910402602001604051908101604052809291908181526020018280546106d2906116f6565b801561071f5780601f106106f45761010080835404028352916020019161071f565b820191906000526020600020905b81548152906001019060200180831161070257829003601f168201915b505050505081565b61074283838360405180602001604052806000815250610e20565b505050565b60006020528060005260406000206000915090505481565b60006001600083815260200190815260200160002060009054906101000a900473ffffffffffffffffffffffffffffffffffffffff169050919050565b60008060008373ffffffffffffffffffffffffffffffffffffffff1673ffffffffffffffffffffffffffffffffffffffff168152602001908152602001600020549050919050565b60055481565b600780546107f7906116f6565b80601f0160208091040260200160405190810160405280929190818152602001828054610823906116f6565b80156108705780601f1061084557610100808354040283529160200191610870565b820191906000526020600020905b81548152906001019060200180831161085357829003601f168201915b505050505081565b80600360003373ffffffffffffffffffffffffffffffffffffffff1673ffffffffffffffffffffffffffffffffffffffff16815260200190815260200160002060008473ffffffffffffffffffffffffffffffffffffffff1673ffffffffffffffffffffffffffffffffffffffff16815260200190815260200160002060006101000a81548160ff0219169083151502179055508173ffffffffffffffffffffffffffffffffffffffff163373ffffffffffffffffffffffffffffffffffffffff167f17307eab39ab6107e8899845ad3d59bd9653f200f220920489ca2b5937696c318360405161096991906114b5565b60405180910390a35050565b60026020528060005260406000206000915054906101000a900473ffffffffffffffffffffffffffffffffffffffff1681565b6109f885858585858080601f016020809104026020016040519081016040528093929190818152602001838380828437600081840152601f19601f82011690508083019250505050505050610e20565b5050505050565b60016020528060005260406000206000915054906101000a900473ffffffffffffffffffffffffffffffffffffffff1681565b6060600882604051602001610a4892919061141b565b6040516020818303038152906040529050919050565b6000600360008473ffffffffffffffffffffffffffffffffffffffff1673ffffffffffffffffffffffffffffffffffffffff16815260200190815260200160002060008373ffffffffffffffffffffffffffffffffffffffff1673ffffffffffffffffffffffffffffffffffffffff16815260200190815260200160002060009054906101000a900460ff16905092915050565b600460009054906101000a900473ffffffffffffffffffffffffffffffffffffffff1681565b8060006001600083815260200190815260200160002060009054906101000a900473ffffffffffffffffffffffffffffffffffffffff1690503373ffffffffffffffffffffffffffffffffffffffff168173ffffffffffffffffffffffffffffffffffffffff161480610be957503373ffffffffffffffffffffffffffffffffffffffff166002600084815260200190815260200160002060009054906101000a900473ffffffffffffffffffffffffffffffffffffffff1673ffffffffffffffffffffffffffffffffffffffff16145b80610c81575060011515600360008373ffffffffffffffffffffffffffffffffffffffff1673ffffffffffffffffffffffffffffffffffffffff16815260200190815260200160002060003373ffffffffffffffffffffffffffffffffffffffff1673ffffffffffffffffffffffffffffffffffffffff16815260200190815260200160002060009054906101000a900460ff161515145b610cc0576040517f08c379a0000000000000000000000000000000000000000000000000000000008152600401610cb790611512565b60405180910390fd5b60016000808773ffffffffffffffffffffffffffffffffffffffff1673ffffffffffffffffffffffffffffffffffffffff1681526020019081526020016000206000828254610d0f919061161b565b9250508190555060016000808673ffffffffffffffffffffffffffffffffffffffff1673ffffffffffffffffffffffffffffffffffffffff1681526020019081526020016000206000828254610d6591906115c5565b92505081905550836001600085815260200190815260200160002060006101000a81548173ffffffffffffffffffffffffffffffffffffffff021916908373ffffffffffffffffffffffffffffffffffffffff160217905550828473ffffffffffffffffffffffffffffffffffffffff168673ffffffffffffffffffffffffffffffffffffffff167fddf252ad1be2c89b69c2b068fc378daa952ba7f163c4a11628f55a4df523b3ef60405160405180910390a45050505050565b610e2b848484610b18565b610e4a8373ffffffffffffffffffffffffffffffffffffffff16610f73565b15610f6d5760008373ffffffffffffffffffffffffffffffffffffffff1663150b7a02338786866040518563ffffffff1660e01b8152600401610e909493929190611469565b602060405180830381600087803b158015610eaa57600080fd5b505af1158015610ebe573d6000803e3d6000fd5b505050506040513d601f19601f82011682018060405250810190610ee29190611208565b905063150b7a0260e01b7bffffffffffffffffffffffffffffffffffffffffffffffffffffffff1916817bffffffffffffffffffffffffffffffffffffffffffffffffffffffff191614610f6b576040517f08c379a0000000000000000000000000000000000000000000000000000000008152600401610f62906114f2565b60405180910390fd5b505b50505050565b60008060007fc5d2460186f7233c927e7db2dcc703c0e500b653ca82273b7bfad8045d85a47060001b9050833f91506000801b8214158015610fb55750808214155b92505050919050565b600081359050610fcd8161186b565b92915050565b600081359050610fe281611882565b92915050565b600081519050610ff781611899565b92915050565b60008083601f84011261100f57600080fd5b8235905067ffffffffffffffff81111561102857600080fd5b60208301915083600182028301111561104057600080fd5b9250929050565b600081359050611056816118b0565b92915050565b60006020828403121561106e57600080fd5b600061107c84828501610fbe565b91505092915050565b6000806040838503121561109857600080fd5b60006110a685828601610fbe565b92505060206110b785828601610fbe565b9150509250929050565b6000806000606084860312156110d657600080fd5b60006110e486828701610fbe565b93505060206110f586828701610fbe565b925050604061110686828701611047565b9150509250925092565b60008060008060006080868803121561112857600080fd5b600061113688828901610fbe565b955050602061114788828901610fbe565b945050604061115888828901611047565b935050606086013567ffffffffffffffff81111561117557600080fd5b61118188828901610ffd565b92509250509295509295909350565b600080604083850312156111a357600080fd5b60006111b185828601610fbe565b92505060206111c285828601610fd3565b9150509250929050565b600080604083850312156111df57600080fd5b60006111ed85828601610fbe565b92505060206111fe85828601611047565b9150509250929050565b60006020828403121561121a57600080fd5b600061122884828501610fe8565b91505092915050565b60006020828403121561124357600080fd5b600061125184828501611047565b91505092915050565b6112638161164f565b82525050565b61127281611661565b82525050565b600061128382611582565b61128d8185611598565b935061129d8185602086016116c3565b6112a681611790565b840191505092915050565b60006112bc8261158d565b6112c681856115a9565b93506112d68185602086016116c3565b6112df81611790565b840191505092915050565b600081546112f7816116f6565b61130181866115ba565b9450600182166000811461131c576001811461132d57611360565b60ff19831686528186019350611360565b6113368561156d565b60005b8381101561135857815481890152600182019150602081019050611339565b838801955050505b50505092915050565b60006113766034836115a9565b9150611381826117a1565b604082019050919050565b60006113996017836115a9565b91506113a4826117f0565b602082019050919050565b60006113bc600e836115a9565b91506113c782611819565b602082019050919050565b60006113df6001836115ba565b91506113ea82611842565b600182019050919050565b6113fe816116b9565b82525050565b611415611410826116b9565b611728565b82525050565b600061142782856112ea565b9150611432826113d2565b915061143e8284611404565b6020820191508190509392505050565b6000602082019050611463600083018461125a565b92915050565b600060808201905061147e600083018761125a565b61148b602083018661125a565b61149860408301856113f5565b81810360608301526114aa8184611278565b905095945050505050565b60006020820190506114ca6000830184611269565b92915050565b600060208201905081810360008301526114ea81846112b1565b905092915050565b6000602082019050818103600083015261150b81611369565b9050919050565b6000602082019050818103600083015261152b8161138c565b9050919050565b6000602082019050818103600083015261154b816113af565b9050919050565b600060208201905061156760008301846113f5565b92915050565b60008190508160005260206000209050919050565b600081519050919050565b600081519050919050565b600082825260208201905092915050565b600082825260208201905092915050565b600081905092915050565b60006115d0826116b9565b91506115db836116b9565b9250827fffffffffffffffffffffffffffffffffffffffffffffffffffffffffffffffff038211156116105761160f611732565b5b828201905092915050565b6000611626826116b9565b9150611631836116b9565b92508282101561164457611643611732565b5b828203905092915050565b600061165a82611699565b9050919050565b60008115159050919050565b60007fffffffff0000000000000000000000000000000000000000000000000000000082169050919050565b600073ffffffffffffffffffffffffffffffffffffffff82169050919050565b6000819050919050565b60005b838110156116e15780820151818401526020810190506116c6565b838111156116f0576000848401525b50505050565b6000600282049050600182168061170e57607f821691505b6020821081141561172257611721611761565b5b50919050565b6000819050919050565b7f4e487b7100000000000000000000000000000000000000000000000000000000600052601160045260246000fd5b7f4e487b7100000000000000000000000000000000000000000000000000000000600052602260045260246000fd5b6000601f19601f8301169050919050565b7f526563697069656e7420736d61727420636f6e74726163742063616e6e6f742060008201527f68616e646c652045524337323120746f6b656e73000000000000000000000000602082015250565b7f5472616e73666572206e6f7420617574686f72697a6564000000000000000000600082015250565b7f4e6f7420617574686f72697a6564000000000000000000000000000000000000600082015250565b7f2f00000000000000000000000000000000000000000000000000000000000000600082015250565b6118748161164f565b811461187f57600080fd5b50565b61188b81611661565b811461189657600080fd5b50565b6118a28161166d565b81146118ad57600080fd5b50565b6118b9816116b9565b81146118c457600080fd5b5056fea264697066735822122095077a156fa5cd67ab54d88b4632acbaf9c48bedf7d9aa6a883761047e2581ed64736f6c63430008010033",
  "immutableReferences": {},
  "source": "// SPDX-License-Identifier: UNLICENSED\npragma solidity 0.8.1;\n\nimport {ERC721Interface} from \"./ERC721Interface.sol\";\nimport {ERC721Receiver} from \"./ERC721Receiver.sol\";\n\n/**\n * @dev Utility library of inline functions on addresses.\n * @notice Based on:\n * https://github.com/OpenZeppelin/openzeppelin-contracts/blob/master/contracts/utils/Address.sol\n * Requires EIP-1052.\n */\nlibrary AddressUtils {\n    /**\n     * @dev Returns whether the target address is a contract.\n     * @param _addr Address to check.\n     * @return addressCheck True if _addr is a contract, false if not.\n     */\n    function isContract(address _addr)\n        internal\n        view\n        returns (bool addressCheck)\n    {\n        // This method relies in extcodesize, which returns 0 for contracts in\n        // construction, since the code is only stored at the end of the\n        // constructor execution.\n\n        // According to EIP-1052, 0x0 is the value returned for not-yet created accounts\n        // and 0xc5d2460186f7233c927e7db2dcc703c0e500b653ca82273b7bfad8045d85a470 is returned\n        // for accounts without code, i.e. `keccak256('')`\n        bytes32 codehash;\n        bytes32 accountHash =\n            0xc5d2460186f7233c927e7db2dcc703c0e500b653ca82273b7bfad8045d85a470;\n        assembly {\n            codehash := extcodehash(_addr)\n        } // solhint-disable-line\n        addressCheck = (codehash != 0x0 && codehash != accountHash);\n    }\n}\n\ncontract ERC721Token is ERC721Interface {\n    using AddressUtils for address;\n    mapping(address => uint256) public ownerToTokenCount;\n    mapping(uint256 => address) public idToOwner;\n    mapping(uint256 => address) public idToApproved;\n    mapping(address => mapping(address => bool)) private ownerToOperators;\n    bytes4 internal constant MAGIC_ON_ERC721_RECEIVED = 0x150b7a02;\n    address public admin;\n    uint256 public nextTokenId;\n    string public name;\n    string public symbol;\n    string public tokenURIBase;\n\n    constructor(string memory _tokenURIBase) {\n        tokenURIBase = _tokenURIBase;\n    }\n\n    function _mint(address _owner, uint256 _tokenId) internal {\n        require(\n            idToOwner[_tokenId] == address(0),\n            \"This token already exist..\"\n        );\n        idToOwner[_tokenId] = _owner;\n        ownerToTokenCount[_owner] += 1;\n        emit Transfer(address(0), _owner, _tokenId);\n    }\n\n    function tokenURI(uint256 _tokenId) external view returns (string memory) {\n        return string(abi.encodePacked(tokenURIBase, \"/\", _tokenId));\n    }\n\n    function balanceOf(address _owner)\n        external\n        view\n        override\n        returns (uint256)\n    {\n        return ownerToTokenCount[_owner];\n    }\n\n    function ownerOf(uint256 _tokenId) public view override returns (address) {\n        return idToOwner[_tokenId];\n    }\n\n    // For smart contracts\n    function safeTransferFrom(\n        address _from,\n        address _to,\n        uint256 _tokenId,\n        bytes calldata data\n    ) external payable override {\n        _safeTransferFrom(_from, _to, _tokenId, data);\n    }\n\n    function safeTransferFrom(\n        address _from,\n        address _to,\n        uint256 _tokenId\n    ) external payable override {\n        _safeTransferFrom(_from, _to, _tokenId, \"\");\n    }\n\n    function transferFrom(\n        address _from,\n        address _to,\n        uint256 _tokenId\n    ) external payable override {\n        _transfer(_from, _to, _tokenId);\n    }\n\n    function approve(address _approved, uint256 _tokenId)\n        external\n        payable\n        override\n    {\n        address owner = idToOwner[_tokenId];\n        require(msg.sender == owner, \"Not authorized\");\n        idToApproved[_tokenId] = _approved;\n        emit Approval(owner, _approved, _tokenId);\n    }\n\n    function setApprovalForAll(address _operator, bool _approved)\n        external\n        override\n    {\n        ownerToOperators[msg.sender][_operator] = _approved;\n        emit ApprovalForAll(msg.sender, _operator, _approved);\n    }\n\n    function getApproved(uint256 _tokenId)\n        external\n        view\n        override\n        returns (address)\n    {\n        return idToApproved[_tokenId];\n    }\n\n    function isApprovedForAll(address _owner, address _operator)\n        external\n        view\n        override\n        returns (bool)\n    {\n        return ownerToOperators[_owner][_operator];\n    }\n\n    function _safeTransferFrom(\n        address _from,\n        address _to,\n        uint256 _tokenId,\n        bytes memory data\n    ) internal {\n        _transfer(_from, _to, _tokenId);\n\n        // Verify whether or not recipient is smart contract\n        if (_to.isContract()) {\n            bytes4 retval =\n                ERC721Receiver(_to).onERC721Received(\n                    msg.sender,\n                    _from,\n                    _tokenId,\n                    data\n                );\n            require(\n                retval == MAGIC_ON_ERC721_RECEIVED,\n                \"Recipient smart contract cannot handle ERC721 tokens\"\n            );\n        }\n    }\n\n    function _transfer(\n        address _from,\n        address _to,\n        uint256 _tokenId\n    ) internal canTransfer(_tokenId) {\n        ownerToTokenCount[_from] -= 1;\n        ownerToTokenCount[_to] += 1;\n        idToOwner[_tokenId] = _to;\n        emit Transfer(_from, _to, _tokenId);\n    }\n\n    modifier canTransfer(uint256 _tokenId) {\n        address owner = idToOwner[_tokenId];\n        require(\n            owner == msg.sender ||\n                idToApproved[_tokenId] == msg.sender ||\n                ownerToOperators[owner][msg.sender] == true,\n            \"Transfer not authorized\"\n        );\n        _;\n    }\n}\n",
  "sourcePath": "/Users/heyyehudes/Documents/Dapp_30/cryptokitties/contracts/ERC721Token.sol",
  "compiler": {
    "name": "solc",
    "version": "0.8.1+commit.df193b15.Emscripten.clang"
  },
  "schemaVersion": "3.3.1",
  "updatedAt": "2021-05-04T00:46:00.522Z",
  "devdoc": {
    "kind": "dev",
    "methods": {},
    "version": 1
  },
  "userdoc": {
    "kind": "user",
    "methods": {},
    "version": 1
  }
}