{
  "contractName": "Cryptokitties",
  "abi": [
    {
      "inputs": [
        {
          "internalType": "string",
          "name": "_tokenURIBase",
          "type": "string"
        }
      ],
      "stateMutability": "nonpayable",
      "type": "constructor"
    },
    {
      "anonymous": false,
      "inputs": [
        {
          "indexed": true,
          "internalType": "address",
          "name": "_owner",
          "type": "address"
        },
        {
          "indexed": true,
          "internalType": "address",
          "name": "_approved",
          "type": "address"
        },
        {
          "indexed": true,
          "internalType": "uint256",
          "name": "_tokenId",
          "type": "uint256"
        }
      ],
      "name": "Approval",
      "type": "event"
    },
    {
      "anonymous": false,
      "inputs": [
        {
          "indexed": true,
          "internalType": "address",
          "name": "_owner",
          "type": "address"
        },
        {
          "indexed": true,
          "internalType": "address",
          "name": "_operator",
          "type": "address"
        },
        {
          "indexed": false,
          "internalType": "bool",
          "name": "_approved",
          "type": "bool"
        }
      ],
      "name": "ApprovalForAll",
      "type": "event"
    },
    {
      "anonymous": false,
      "inputs": [
        {
          "indexed": true,
          "internalType": "address",
          "name": "_from",
          "type": "address"
        },
        {
          "indexed": true,
          "internalType": "address",
          "name": "_to",
          "type": "address"
        },
        {
          "indexed": true,
          "internalType": "uint256",
          "name": "_tokenId",
          "type": "uint256"
        }
      ],
      "name": "Transfer",
      "type": "event"
    },
    {
      "inputs": [],
      "name": "admin",
      "outputs": [
        {
          "internalType": "address",
          "name": "",
          "type": "address"
        }
      ],
      "stateMutability": "view",
      "type": "function",
      "constant": true
    },
    {
      "inputs": [
        {
          "internalType": "address",
          "name": "_approved",
          "type": "address"
        },
        {
          "internalType": "uint256",
          "name": "_tokenId",
          "type": "uint256"
        }
      ],
      "name": "approve",
      "outputs": [],
      "stateMutability": "payable",
      "type": "function",
      "payable": true
    },
    {
      "inputs": [
        {
          "internalType": "address",
          "name": "_owner",
          "type": "address"
        }
      ],
      "name": "balanceOf",
      "outputs": [
        {
          "internalType": "uint256",
          "name": "",
          "type": "uint256"
        }
      ],
      "stateMutability": "view",
      "type": "function",
      "constant": true
    },
    {
      "inputs": [
        {
          "internalType": "uint256",
          "name": "_tokenId",
          "type": "uint256"
        }
      ],
      "name": "getApproved",
      "outputs": [
        {
          "internalType": "address",
          "name": "",
          "type": "address"
        }
      ],
      "stateMutability": "view",
      "type": "function",
      "constant": true
    },
    {
      "inputs": [
        {
          "internalType": "uint256",
          "name": "",
          "type": "uint256"
        }
      ],
      "name": "idToApproved",
      "outputs": [
        {
          "internalType": "address",
          "name": "",
          "type": "address"
        }
      ],
      "stateMutability": "view",
      "type": "function",
      "constant": true
    },
    {
      "inputs": [
        {
          "internalType": "uint256",
          "name": "",
          "type": "uint256"
        }
      ],
      "name": "idToOwner",
      "outputs": [
        {
          "internalType": "address",
          "name": "",
          "type": "address"
        }
      ],
      "stateMutability": "view",
      "type": "function",
      "constant": true
    },
    {
      "inputs": [
        {
          "internalType": "address",
          "name": "_owner",
          "type": "address"
        },
        {
          "internalType": "address",
          "name": "_operator",
          "type": "address"
        }
      ],
      "name": "isApprovedForAll",
      "outputs": [
        {
          "internalType": "bool",
          "name": "",
          "type": "bool"
        }
      ],
      "stateMutability": "view",
      "type": "function",
      "constant": true
    },
    {
      "inputs": [
        {
          "internalType": "uint256",
          "name": "",
          "type": "uint256"
        }
      ],
      "name": "kitties",
      "outputs": [
        {
          "internalType": "uint256",
          "name": "id",
          "type": "uint256"
        },
        {
          "internalType": "uint256",
          "name": "generation",
          "type": "uint256"
        },
        {
          "internalType": "uint256",
          "name": "geneA",
          "type": "uint256"
        },
        {
          "internalType": "uint256",
          "name": "geneB",
          "type": "uint256"
        }
      ],
      "stateMutability": "view",
      "type": "function",
      "constant": true
    },
    {
      "inputs": [],
      "name": "nextId",
      "outputs": [
        {
          "internalType": "uint256",
          "name": "",
          "type": "uint256"
        }
      ],
      "stateMutability": "view",
      "type": "function",
      "constant": true
    },
    {
      "inputs": [],
      "name": "nextTokenId",
      "outputs": [
        {
          "internalType": "uint256",
          "name": "",
          "type": "uint256"
        }
      ],
      "stateMutability": "view",
      "type": "function",
      "constant": true
    },
    {
      "inputs": [
        {
          "internalType": "uint256",
          "name": "_tokenId",
          "type": "uint256"
        }
      ],
      "name": "ownerOf",
      "outputs": [
        {
          "internalType": "address",
          "name": "",
          "type": "address"
        }
      ],
      "stateMutability": "view",
      "type": "function",
      "constant": true
    },
    {
      "inputs": [
        {
          "internalType": "address",
          "name": "",
          "type": "address"
        }
      ],
      "name": "ownerToTokenCount",
      "outputs": [
        {
          "internalType": "uint256",
          "name": "",
          "type": "uint256"
        }
      ],
      "stateMutability": "view",
      "type": "function",
      "constant": true
    },
    {
      "inputs": [
        {
          "internalType": "address",
          "name": "_from",
          "type": "address"
        },
        {
          "internalType": "address",
          "name": "_to",
          "type": "address"
        },
        {
          "internalType": "uint256",
          "name": "_tokenId",
          "type": "uint256"
        }
      ],
      "name": "safeTransferFrom",
      "outputs": [],
      "stateMutability": "payable",
      "type": "function",
      "payable": true
    },
    {
      "inputs": [
        {
          "internalType": "address",
          "name": "_from",
          "type": "address"
        },
        {
          "internalType": "address",
          "name": "_to",
          "type": "address"
        },
        {
          "internalType": "uint256",
          "name": "_tokenId",
          "type": "uint256"
        },
        {
          "internalType": "bytes",
          "name": "data",
          "type": "bytes"
        }
      ],
      "name": "safeTransferFrom",
      "outputs": [],
      "stateMutability": "payable",
      "type": "function",
      "payable": true
    },
    {
      "inputs": [
        {
          "internalType": "address",
          "name": "_operator",
          "type": "address"
        },
        {
          "internalType": "bool",
          "name": "_approved",
          "type": "bool"
        }
      ],
      "name": "setApprovalForAll",
      "outputs": [],
      "stateMutability": "nonpayable",
      "type": "function"
    },
    {
      "inputs": [
        {
          "internalType": "uint256",
          "name": "_tokenId",
          "type": "uint256"
        }
      ],
      "name": "tokenURI",
      "outputs": [
        {
          "internalType": "string",
          "name": "",
          "type": "string"
        }
      ],
      "stateMutability": "view",
      "type": "function",
      "constant": true
    },
    {
      "inputs": [],
      "name": "tokenURIBase",
      "outputs": [
        {
          "internalType": "string",
          "name": "",
          "type": "string"
        }
      ],
      "stateMutability": "view",
      "type": "function",
      "constant": true
    },
    {
      "inputs": [
        {
          "internalType": "address",
          "name": "_from",
          "type": "address"
        },
        {
          "internalType": "address",
          "name": "_to",
          "type": "address"
        },
        {
          "internalType": "uint256",
          "name": "_tokenId",
          "type": "uint256"
        }
      ],
      "name": "transferFrom",
      "outputs": [],
      "stateMutability": "payable",
      "type": "function",
      "payable": true
    },
    {
      "inputs": [],
      "name": "getAllKitties",
      "outputs": [
        {
          "components": [
            {
              "internalType": "uint256",
              "name": "id",
              "type": "uint256"
            },
            {
              "internalType": "uint256",
              "name": "generation",
              "type": "uint256"
            },
            {
              "internalType": "uint256",
              "name": "geneA",
              "type": "uint256"
            },
            {
              "internalType": "uint256",
              "name": "geneB",
              "type": "uint256"
            }
          ],
          "internalType": "struct Cryptokitties.Kitty[]",
          "name": "",
          "type": "tuple[]"
        }
      ],
      "stateMutability": "view",
      "type": "function",
      "constant": true
    },
    {
      "inputs": [
        {
          "internalType": "address",
          "name": "owner",
          "type": "address"
        }
      ],
      "name": "getAllKittiesOf",
      "outputs": [
        {
          "components": [
            {
              "internalType": "uint256",
              "name": "id",
              "type": "uint256"
            },
            {
              "internalType": "uint256",
              "name": "generation",
              "type": "uint256"
            },
            {
              "internalType": "uint256",
              "name": "geneA",
              "type": "uint256"
            },
            {
              "internalType": "uint256",
              "name": "geneB",
              "type": "uint256"
            }
          ],
          "internalType": "struct Cryptokitties.Kitty[]",
          "name": "",
          "type": "tuple[]"
        }
      ],
      "stateMutability": "view",
      "type": "function",
      "constant": true
    },
    {
      "inputs": [
        {
          "internalType": "uint256",
          "name": "kitty1Id",
          "type": "uint256"
        },
        {
          "internalType": "uint256",
          "name": "kitty2Id",
          "type": "uint256"
        }
      ],
      "name": "breed",
      "outputs": [],
      "stateMutability": "nonpayable",
      "type": "function"
    },
    {
      "inputs": [],
      "name": "mint",
      "outputs": [],
      "stateMutability": "nonpayable",
      "type": "function"
    }
  ],
  "bytecode": "0x60806040523480156200001157600080fd5b5060405162002940380380620029408339818101604052810190620000379190620001bc565b808060059080519060200190620000509291906200009a565b505033600860006101000a81548173ffffffffffffffffffffffffffffffffffffffff021916908373ffffffffffffffffffffffffffffffffffffffff1602179055505062000371565b828054620000a89062000296565b90600052602060002090601f016020900481019282620000cc576000855562000118565b82601f10620000e757805160ff191683800117855562000118565b8280016001018555821562000118579182015b8281111562000117578251825591602001919060010190620000fa565b5b5090506200012791906200012b565b5090565b5b80821115620001465760008160009055506001016200012c565b5090565b6000620001616200015b846200022a565b62000201565b9050828152602081018484840111156200017a57600080fd5b6200018784828562000260565b509392505050565b600082601f830112620001a157600080fd5b8151620001b38482602086016200014a565b91505092915050565b600060208284031215620001cf57600080fd5b600082015167ffffffffffffffff811115620001ea57600080fd5b620001f8848285016200018f565b91505092915050565b60006200020d62000220565b90506200021b8282620002cc565b919050565b6000604051905090565b600067ffffffffffffffff82111562000248576200024762000331565b5b620002538262000360565b9050602081019050919050565b60005b838110156200028057808201518184015260208101905062000263565b8381111562000290576000848401525b50505050565b60006002820490506001821680620002af57607f821691505b60208210811415620002c657620002c562000302565b5b50919050565b620002d78262000360565b810181811067ffffffffffffffff82111715620002f957620002f862000331565b5b80604052505050565b7f4e487b7100000000000000000000000000000000000000000000000000000000600052602260045260246000fd5b7f4e487b7100000000000000000000000000000000000000000000000000000000600052604160045260246000fd5b6000601f19601f8301169050919050565b6125bf80620003816000396000f3fe6080604052600436106101355760003560e01c806370a08231116100ab578063b88d4fde1161006f578063b88d4fde14610428578063bfc206ed14610444578063c87b56dd14610481578063d9ecad7b146104be578063e985e9c5146104e7578063f851a4401461052457610135565b806370a082311461031a57806375794a3c146103575780638cc51eda14610382578063a22cb465146103c2578063b088d74b146103eb57610135565b8063261220a3116100fd578063261220a31461020357806342842e0e1461022e57806346692f511461024a57806361b8ce8c146102875780636352211e146102b257806369491ed4146102ef57610135565b8063081812fc1461013a578063095ea7b3146101775780630fb14c6f146101935780631249c58b146101d057806323b872dd146101e7575b600080fd5b34801561014657600080fd5b50610161600480360381019061015c9190611ab8565b61054f565b60405161016e9190611ea3565b60405180910390f35b610191600480360381019061018c9190611a53565b61058c565b005b34801561019f57600080fd5b506101ba60048036038101906101b591906118e3565b6106e4565b6040516101c79190611f0a565b60405180910390f35b3480156101dc57600080fd5b506101e56108c6565b005b61020160048036038101906101fc9190611948565b6109f2565b005b34801561020f57600080fd5b50610218610a02565b6040516102259190611f47565b60405180910390f35b61024860048036038101906102439190611948565b610a90565b005b34801561025657600080fd5b50610271600480360381019061026c91906118e3565b610ab0565b60405161027e9190612049565b60405180910390f35b34801561029357600080fd5b5061029c610ac8565b6040516102a99190612049565b60405180910390f35b3480156102be57600080fd5b506102d960048036038101906102d49190611ab8565b610ace565b6040516102e69190611ea3565b60405180910390f35b3480156102fb57600080fd5b50610304610b0b565b6040516103119190611f0a565b60405180910390f35b34801561032657600080fd5b50610341600480360381019061033c91906118e3565b610c3e565b60405161034e9190612049565b60405180910390f35b34801561036357600080fd5b5061036c610c86565b6040516103799190612049565b60405180910390f35b34801561038e57600080fd5b506103a960048036038101906103a49190611ab8565b610c8c565b6040516103b99493929190612064565b60405180910390f35b3480156103ce57600080fd5b506103e960048036038101906103e49190611a17565b610cbc565b005b3480156103f757600080fd5b50610412600480360381019061040d9190611ab8565b610db9565b60405161041f9190611ea3565b60405180910390f35b610442600480360381019061043d9190611997565b610dec565b005b34801561045057600080fd5b5061046b60048036038101906104669190611ab8565b610e43565b6040516104789190611ea3565b60405180910390f35b34801561048d57600080fd5b506104a860048036038101906104a39190611ab8565b610e76565b6040516104b59190611f47565b60405180910390f35b3480156104ca57600080fd5b506104e560048036038101906104e09190611ae1565b610ea2565b005b3480156104f357600080fd5b5061050e6004803603810190610509919061190c565b6110d3565b60405161051b9190611f2c565b60405180910390f35b34801561053057600080fd5b50610539611167565b6040516105469190611ea3565b60405180910390f35b60006002600083815260200190815260200160002060009054906101000a900473ffffffffffffffffffffffffffffffffffffffff169050919050565b60006001600083815260200190815260200160002060009054906101000a900473ffffffffffffffffffffffffffffffffffffffff1690508073ffffffffffffffffffffffffffffffffffffffff163373ffffffffffffffffffffffffffffffffffffffff1614610632576040517f08c379a000000000000000000000000000000000000000000000000000000000815260040161062990612009565b60405180910390fd5b826002600084815260200190815260200160002060006101000a81548173ffffffffffffffffffffffffffffffffffffffff021916908373ffffffffffffffffffffffffffffffffffffffff160217905550818373ffffffffffffffffffffffffffffffffffffffff168273ffffffffffffffffffffffffffffffffffffffff167f8c5be1e5ebec7d5bd14f71427d1e84f3dd0314c0f7b2291e5b200ac8c7c3b92560405160405180910390a4505050565b6060600080600090505b600754811015610756578373ffffffffffffffffffffffffffffffffffffffff1661071882610ace565b73ffffffffffffffffffffffffffffffffffffffff16141561074357818061073f9061229d565b9250505b808061074e9061229d565b9150506106ee565b5060008167ffffffffffffffff811115610799577f4e487b7100000000000000000000000000000000000000000000000000000000600052604160045260246000fd5b6040519080825280602002602001820160405280156107d257816020015b6107bf61181d565b8152602001906001900390816107b75790505b50905060005b81518110156108bb578473ffffffffffffffffffffffffffffffffffffffff1661080182610ace565b73ffffffffffffffffffffffffffffffffffffffff1614156108a8576006600082815260200190815260200160002060405180608001604052908160008201548152602001600182015481526020016002820154815260200160038201548152505082828151811061089c577f4e487b7100000000000000000000000000000000000000000000000000000000600052603260045260246000fd5b60200260200101819052505b80806108b39061229d565b9150506107d8565b508092505050919050565b600860009054906101000a900473ffffffffffffffffffffffffffffffffffffffff1673ffffffffffffffffffffffffffffffffffffffff163373ffffffffffffffffffffffffffffffffffffffff1614610956576040517f08c379a000000000000000000000000000000000000000000000000000000000815260040161094d90611fe9565b60405180910390fd5b604051806080016040528060075481526020016001815260200161097a600c61118d565b8152602001610989600c61118d565b815250600660006007548152602001908152602001600020600082015181600001556020820151816001015560408201518160020155606082015181600301559050506109d8600754336111cd565b600760008154809291906109eb9061229d565b9190505550565b6109fd838383611377565b505050565b60058054610a0f9061226b565b80601f0160208091040260200160405190810160405280929190818152602001828054610a3b9061226b565b8015610a885780601f10610a5d57610100808354040283529160200191610a88565b820191906000526020600020905b815481529060010190602001808311610a6b57829003601f168201915b505050505081565b610aab8383836040518060200160405280600081525061167f565b505050565b60006020528060005260406000206000915090505481565b60075481565b60006001600083815260200190815260200160002060009054906101000a900473ffffffffffffffffffffffffffffffffffffffff169050919050565b6060600060075467ffffffffffffffff811115610b51577f4e487b7100000000000000000000000000000000000000000000000000000000600052604160045260246000fd5b604051908082528060200260200182016040528015610b8a57816020015b610b7761181d565b815260200190600190039081610b6f5790505b50905060005b8151811015610c365760066000828152602001908152602001600020604051806080016040529081600082015481526020016001820154815260200160028201548152602001600382015481525050828281518110610c18577f4e487b7100000000000000000000000000000000000000000000000000000000600052603260045260246000fd5b60200260200101819052508080610c2e9061229d565b915050610b90565b508091505090565b60008060008373ffffffffffffffffffffffffffffffffffffffff1673ffffffffffffffffffffffffffffffffffffffff168152602001908152602001600020549050919050565b60045481565b60066020528060005260406000206000915090508060000154908060010154908060020154908060030154905084565b80600360003373ffffffffffffffffffffffffffffffffffffffff1673ffffffffffffffffffffffffffffffffffffffff16815260200190815260200160002060008473ffffffffffffffffffffffffffffffffffffffff1673ffffffffffffffffffffffffffffffffffffffff16815260200190815260200160002060006101000a81548160ff0219169083151502179055508173ffffffffffffffffffffffffffffffffffffffff163373ffffffffffffffffffffffffffffffffffffffff167f17307eab39ab6107e8899845ad3d59bd9653f200f220920489ca2b5937696c3183604051610dad9190611f2c565b60405180910390a35050565b60026020528060005260406000206000915054906101000a900473ffffffffffffffffffffffffffffffffffffffff1681565b610e3c85858585858080601f016020809104026020016040519081016040528093929190818152602001838380828437600081840152601f19601f8201169050808301925050505050505061167f565b5050505050565b60016020528060005260406000206000915054906101000a900473ffffffffffffffffffffffffffffffffffffffff1681565b6060600582604051602001610e8c929190611e44565b6040516020818303038152906040529050919050565b60075482108015610eb4575060075481105b610ef3576040517f08c379a0000000000000000000000000000000000000000000000000000000008152600401610eea90612029565b60405180910390fd5b600060066000848152602001908152602001600020905060006006600084815260200190815260200160002090503373ffffffffffffffffffffffffffffffffffffffff16610f4185610ace565b73ffffffffffffffffffffffffffffffffffffffff16148015610f9757503373ffffffffffffffffffffffffffffffffffffffff16610f7f84610ace565b73ffffffffffffffffffffffffffffffffffffffff16145b610fd6576040517f08c379a0000000000000000000000000000000000000000000000000000000008152600401610fcd90611fa9565b60405180910390fd5b60008160010154836001015411610ff1578160010154610ff7565b82600101545b905060006001611007600461118d565b1161101657826002015461101c565b83600201545b90506000600161102c600461118d565b1161103b578360030154611041565b84600301545b90506040518060800160405280600754815260200184815260200183815260200182815250600660006007548152602001908152602001600020600082015181600001556020820151816001015560408201518160020155606082015181600301559050506110b2600754336111cd565b600760008154809291906110c59061229d565b919050555050505050505050565b6000600360008473ffffffffffffffffffffffffffffffffffffffff1673ffffffffffffffffffffffffffffffffffffffff16815260200190815260200160002060008373ffffffffffffffffffffffffffffffffffffffff1673ffffffffffffffffffffffffffffffffffffffff16815260200190815260200160002060009054906101000a900460ff16905092915050565b600860009054906101000a900473ffffffffffffffffffffffffffffffffffffffff1681565b60008142446040516020016111a3929190611e77565b6040516020818303038152906040528051906020012060001c6111c691906122f0565b9050919050565b600073ffffffffffffffffffffffffffffffffffffffff166001600084815260200190815260200160002060009054906101000a900473ffffffffffffffffffffffffffffffffffffffff1673ffffffffffffffffffffffffffffffffffffffff161461126f576040517f08c379a000000000000000000000000000000000000000000000000000000000815260040161126690611f69565b60405180910390fd5b806001600084815260200190815260200160002060006101000a81548173ffffffffffffffffffffffffffffffffffffffff021916908373ffffffffffffffffffffffffffffffffffffffff16021790555060016000808373ffffffffffffffffffffffffffffffffffffffff1673ffffffffffffffffffffffffffffffffffffffff1681526020019081526020016000206000828254611310919061213a565b92505081905550818173ffffffffffffffffffffffffffffffffffffffff16600073ffffffffffffffffffffffffffffffffffffffff167fddf252ad1be2c89b69c2b068fc378daa952ba7f163c4a11628f55a4df523b3ef60405160405180910390a45050565b8060006001600083815260200190815260200160002060009054906101000a900473ffffffffffffffffffffffffffffffffffffffff1690503373ffffffffffffffffffffffffffffffffffffffff168173ffffffffffffffffffffffffffffffffffffffff16148061144857503373ffffffffffffffffffffffffffffffffffffffff166002600084815260200190815260200160002060009054906101000a900473ffffffffffffffffffffffffffffffffffffffff1673ffffffffffffffffffffffffffffffffffffffff16145b806114e0575060011515600360008373ffffffffffffffffffffffffffffffffffffffff1673ffffffffffffffffffffffffffffffffffffffff16815260200190815260200160002060003373ffffffffffffffffffffffffffffffffffffffff1673ffffffffffffffffffffffffffffffffffffffff16815260200190815260200160002060009054906101000a900460ff161515145b61151f576040517f08c379a000000000000000000000000000000000000000000000000000000000815260040161151690611fc9565b60405180910390fd5b60016000808773ffffffffffffffffffffffffffffffffffffffff1673ffffffffffffffffffffffffffffffffffffffff168152602001908152602001600020600082825461156e9190612190565b9250508190555060016000808673ffffffffffffffffffffffffffffffffffffffff1673ffffffffffffffffffffffffffffffffffffffff16815260200190815260200160002060008282546115c4919061213a565b92505081905550836001600085815260200190815260200160002060006101000a81548173ffffffffffffffffffffffffffffffffffffffff021916908373ffffffffffffffffffffffffffffffffffffffff160217905550828473ffffffffffffffffffffffffffffffffffffffff168673ffffffffffffffffffffffffffffffffffffffff167fddf252ad1be2c89b69c2b068fc378daa952ba7f163c4a11628f55a4df523b3ef60405160405180910390a45050505050565b61168a848484611377565b6116a98373ffffffffffffffffffffffffffffffffffffffff166117d2565b156117cc5760008373ffffffffffffffffffffffffffffffffffffffff1663150b7a02338786866040518563ffffffff1660e01b81526004016116ef9493929190611ebe565b602060405180830381600087803b15801561170957600080fd5b505af115801561171d573d6000803e3d6000fd5b505050506040513d601f19601f820116820180604052508101906117419190611a8f565b905063150b7a0260e01b7bffffffffffffffffffffffffffffffffffffffffffffffffffffffff1916817bffffffffffffffffffffffffffffffffffffffffffffffffffffffff1916146117ca576040517f08c379a00000000000000000000000000000000000000000000000000000000081526004016117c190611f89565b60405180910390fd5b505b50505050565b60008060007fc5d2460186f7233c927e7db2dcc703c0e500b653ca82273b7bfad8045d85a47060001b9050833f91506000801b82141580156118145750808214155b92505050919050565b6040518060800160405280600081526020016000815260200160008152602001600081525090565b6000813590506118548161252d565b92915050565b60008135905061186981612544565b92915050565b60008151905061187e8161255b565b92915050565b60008083601f84011261189657600080fd5b8235905067ffffffffffffffff8111156118af57600080fd5b6020830191508360018202830111156118c757600080fd5b9250929050565b6000813590506118dd81612572565b92915050565b6000602082840312156118f557600080fd5b600061190384828501611845565b91505092915050565b6000806040838503121561191f57600080fd5b600061192d85828601611845565b925050602061193e85828601611845565b9150509250929050565b60008060006060848603121561195d57600080fd5b600061196b86828701611845565b935050602061197c86828701611845565b925050604061198d868287016118ce565b9150509250925092565b6000806000806000608086880312156119af57600080fd5b60006119bd88828901611845565b95505060206119ce88828901611845565b94505060406119df888289016118ce565b935050606086013567ffffffffffffffff8111156119fc57600080fd5b611a0888828901611884565b92509250509295509295909350565b60008060408385031215611a2a57600080fd5b6000611a3885828601611845565b9250506020611a498582860161185a565b9150509250929050565b60008060408385031215611a6657600080fd5b6000611a7485828601611845565b9250506020611a85858286016118ce565b9150509250929050565b600060208284031215611aa157600080fd5b6000611aaf8482850161186f565b91505092915050565b600060208284031215611aca57600080fd5b6000611ad8848285016118ce565b91505092915050565b60008060408385031215611af457600080fd5b6000611b02858286016118ce565b9250506020611b13858286016118ce565b9150509250929050565b6000611b298383611dba565b60808301905092915050565b611b3e816121c4565b82525050565b6000611b4f826120ce565b611b5981856120fc565b9350611b64836120a9565b8060005b83811015611b95578151611b7c8882611b1d565b9750611b87836120ef565b925050600181019050611b68565b5085935050505092915050565b611bab816121d6565b82525050565b6000611bbc826120d9565b611bc6818561210d565b9350611bd6818560208601612238565b611bdf816123ae565b840191505092915050565b6000611bf5826120e4565b611bff818561211e565b9350611c0f818560208601612238565b611c18816123ae565b840191505092915050565b60008154611c308161226b565b611c3a818661212f565b94506001821660008114611c555760018114611c6657611c99565b60ff19831686528186019350611c99565b611c6f856120b9565b60005b83811015611c9157815481890152600182019150602081019050611c72565b838801955050505b50505092915050565b6000611caf60198361211e565b9150611cba826123bf565b602082019050919050565b6000611cd260348361211e565b9150611cdd826123e8565b604082019050919050565b6000611cf560188361211e565b9150611d0082612437565b602082019050919050565b6000611d1860178361211e565b9150611d2382612460565b602082019050919050565b6000611d3b600a8361211e565b9150611d4682612489565b602082019050919050565b6000611d5e600e8361211e565b9150611d69826124b2565b602082019050919050565b6000611d8160018361212f565b9150611d8c826124db565b600182019050919050565b6000611da4601a8361211e565b9150611daf82612504565b602082019050919050565b608082016000820151611dd06000850182611e0f565b506020820151611de36020850182611e0f565b506040820151611df66040850182611e0f565b506060820151611e096060850182611e0f565b50505050565b611e188161222e565b82525050565b611e278161222e565b82525050565b611e3e611e398261222e565b6122e6565b82525050565b6000611e508285611c23565b9150611e5b82611d74565b9150611e678284611e2d565b6020820191508190509392505050565b6000611e838285611e2d565b602082019150611e938284611e2d565b6020820191508190509392505050565b6000602082019050611eb86000830184611b35565b92915050565b6000608082019050611ed36000830187611b35565b611ee06020830186611b35565b611eed6040830185611e1e565b8181036060830152611eff8184611bb1565b905095945050505050565b60006020820190508181036000830152611f248184611b44565b905092915050565b6000602082019050611f416000830184611ba2565b92915050565b60006020820190508181036000830152611f618184611bea565b905092915050565b60006020820190508181036000830152611f8281611ca2565b9050919050565b60006020820190508181036000830152611fa281611cc5565b9050919050565b60006020820190508181036000830152611fc281611ce8565b9050919050565b60006020820190508181036000830152611fe281611d0b565b9050919050565b6000602082019050818103600083015261200281611d2e565b9050919050565b6000602082019050818103600083015261202281611d51565b9050919050565b6000602082019050818103600083015261204281611d97565b9050919050565b600060208201905061205e6000830184611e1e565b92915050565b60006080820190506120796000830187611e1e565b6120866020830186611e1e565b6120936040830185611e1e565b6120a06060830184611e1e565b95945050505050565b6000819050602082019050919050565b60008190508160005260206000209050919050565b600081519050919050565b600081519050919050565b600081519050919050565b6000602082019050919050565b600082825260208201905092915050565b600082825260208201905092915050565b600082825260208201905092915050565b600081905092915050565b60006121458261222e565b91506121508361222e565b9250827fffffffffffffffffffffffffffffffffffffffffffffffffffffffffffffffff0382111561218557612184612321565b5b828201905092915050565b600061219b8261222e565b91506121a68361222e565b9250828210156121b9576121b8612321565b5b828203905092915050565b60006121cf8261220e565b9050919050565b60008115159050919050565b60007fffffffff0000000000000000000000000000000000000000000000000000000082169050919050565b600073ffffffffffffffffffffffffffffffffffffffff82169050919050565b6000819050919050565b60005b8381101561225657808201518184015260208101905061223b565b83811115612265576000848401525b50505050565b6000600282049050600182168061228357607f821691505b602082108114156122975761229661237f565b5b50919050565b60006122a88261222e565b91507fffffffffffffffffffffffffffffffffffffffffffffffffffffffffffffffff8214156122db576122da612321565b5b600182019050919050565b6000819050919050565b60006122fb8261222e565b91506123068361222e565b92508261231657612315612350565b5b828206905092915050565b7f4e487b7100000000000000000000000000000000000000000000000000000000600052601160045260246000fd5b7f4e487b7100000000000000000000000000000000000000000000000000000000600052601260045260246000fd5b7f4e487b7100000000000000000000000000000000000000000000000000000000600052602260045260246000fd5b6000601f19601f8301169050919050565b7f5468697320746f6b656e20616c72656164792065786973747300000000000000600082015250565b7f526563697069656e7420736d61727420636f6e74726163742063616e6e6f742060008201527f68616e646c652045524337323120746f6b656e73000000000000000000000000602082015250565b7f4d757374206265206f776e6572206f66206b6974746965730000000000000000600082015250565b7f5472616e73666572206e6f7420617574686f72697a6564000000000000000000600082015250565b7f41646d696e206f6e6c7900000000000000000000000000000000000000000000600082015250565b7f4e6f7420617574686f72697a6564000000000000000000000000000000000000600082015250565b7f2f00000000000000000000000000000000000000000000000000000000000000600082015250565b7f5468652074776f206b697474696573206d757374206578697374000000000000600082015250565b612536816121c4565b811461254157600080fd5b50565b61254d816121d6565b811461255857600080fd5b50565b612564816121e2565b811461256f57600080fd5b50565b61257b8161222e565b811461258657600080fd5b5056fea2646970667358221220d66b22a676b71c4347b39fe0742dfd13acfe605fdb8fbc7572d67bbf90fee10864736f6c63430008010033",
  "immutableReferences": {},
  "source": "// SPDX-License-Identifier: UNLICENSED\npragma solidity ^0.8.1;\n\nimport \"./ERC721Token.sol\";\n\ncontract Cryptokitties is ERC721Token {\n    struct Kitty {\n        uint256 id;\n        uint256 generation;\n        uint256 geneA;\n        uint256 geneB;\n    }\n\n    mapping(uint256 => Kitty) public kitties;\n    uint256 public nextId;\n    address public admin;\n\n    constructor(string memory _tokenURIBase) ERC721Token(_tokenURIBase) {\n        admin = msg.sender;\n    }\n\n    function getAllKitties() external view returns (Kitty[] memory) {\n        Kitty[] memory _kitties = new Kitty[](nextId);\n        for (uint256 i = 0; i < _kitties.length; i++) {\n            _kitties[i] = kitties[i];\n        }\n        return _kitties;\n    }\n\n    function getAllKittiesOf(address owner)\n        external\n        view\n        returns (Kitty[] memory)\n    {\n        uint256 length;\n        for (uint256 i = 0; i < nextId; i++) {\n            if (ownerOf(i) == owner) {\n                length++;\n            }\n        }\n        Kitty[] memory _kitties = new Kitty[](length);\n        for (uint256 i = 0; i < _kitties.length; i++) {\n            if (ownerOf(i) == owner) {\n                _kitties[i] = kitties[i];\n            }\n        }\n        return _kitties;\n    }\n\n    function breed(uint256 kitty1Id, uint256 kitty2Id) external {\n        require(\n            kitty1Id < nextId && kitty2Id < nextId,\n            \"The two kitties must exist\"\n        );\n        Kitty storage kitty1 = kitties[kitty1Id];\n        Kitty storage kitty2 = kitties[kitty2Id];\n        require(\n            ownerOf(kitty1Id) == msg.sender && ownerOf(kitty2Id) == msg.sender,\n            \"Must be owner of kitties\"\n        );\n        uint256 maxGen =\n            kitty1.generation > kitty2.generation\n                ? kitty1.generation\n                : kitty2.generation;\n        uint256 geneA = _random(4) > 1 ? kitty1.geneA : kitty2.geneA;\n        uint256 geneB = _random(4) > 1 ? kitty1.geneB : kitty2.geneB;\n        kitties[nextId] = Kitty(nextId, maxGen, geneA, geneB);\n        _mint(nextId, msg.sender);\n        nextId++;\n    }\n\n    function mint() external {\n        require(msg.sender == admin, \"Admin only\");\n        // 1. Create kitty struct\n        kitties[nextId] = Kitty(nextId, 1, _random(12), _random(12));\n        // 2. Create actual NFT asset\n        _mint(nextId, msg.sender);\n        nextId++;\n    }\n\n    function _random(uint256 max) internal view returns (uint256) {\n        return\n            uint256(\n                keccak256(abi.encodePacked(block.timestamp, block.difficulty))\n            ) % max;\n    }\n}\n",
  "sourcePath": "/Users/heyyehudes/Documents/Dapp_30/cryptokitties/contracts/Cryptokitties.sol",
  "compiler": {
    "name": "solc",
    "version": "0.8.1+commit.df193b15.Emscripten.clang"
  },
  "schemaVersion": "3.3.1",
  "updatedAt": "2021-05-04T04:56:48.108Z",
  "networkType": "ethereum",
  "devdoc": {
    "kind": "dev",
    "methods": {},
    "version": 1
  },
  "userdoc": {
    "kind": "user",
    "methods": {},
    "version": 1
  }
}